{
	"contracts/FundMe.sol": {
		"FundMe": {
			"abi": [
				{
					"inputs": [],
					"stateMutability": "nonpayable",
					"type": "constructor"
				},
				{
					"inputs": [
						{
							"internalType": "address",
							"name": "",
							"type": "address"
						}
					],
					"name": "addressToAmountFunded",
					"outputs": [
						{
							"internalType": "uint256",
							"name": "",
							"type": "uint256"
						}
					],
					"stateMutability": "view",
					"type": "function"
				},
				{
					"inputs": [],
					"name": "fund",
					"outputs": [],
					"stateMutability": "payable",
					"type": "function"
				},
				{
					"inputs": [
						{
							"internalType": "uint256",
							"name": "",
							"type": "uint256"
						}
					],
					"name": "funders",
					"outputs": [
						{
							"internalType": "address",
							"name": "",
							"type": "address"
						}
					],
					"stateMutability": "view",
					"type": "function"
				},
				{
					"inputs": [],
					"name": "minUSD",
					"outputs": [
						{
							"internalType": "uint256",
							"name": "",
							"type": "uint256"
						}
					],
					"stateMutability": "view",
					"type": "function"
				},
				{
					"inputs": [],
					"name": "owner",
					"outputs": [
						{
							"internalType": "address",
							"name": "",
							"type": "address"
						}
					],
					"stateMutability": "view",
					"type": "function"
				},
				{
					"inputs": [],
					"name": "withdraw",
					"outputs": [],
					"stateMutability": "nonpayable",
					"type": "function"
				}
			],
			"devdoc": {
				"kind": "dev",
				"methods": {},
				"version": 1
			},
			"evm": {
				"assembly": "    /* \"contracts/FundMe.sol\":95:2329  contract FundMe {\r... */\n  mstore(0x40, 0x80)\n    /* \"contracts/FundMe.sol\":183:192  50 * 1e18 */\n  0x02b5e3af16b1880000\n    /* \"contracts/FundMe.sol\":159:192  uint256 public minUSD = 50 * 1e18 */\n  0x00\n  sstore\n    /* \"contracts/FundMe.sol\":382:514  constructor(){\r... */\n  callvalue\n  dup1\n  iszero\n  tag_1\n  jumpi\n  0x00\n  dup1\n  revert\ntag_1:\n  pop\n    /* \"contracts/FundMe.sol\":414:424  msg.sender */\n  caller\n    /* \"contracts/FundMe.sol\":406:411  owner */\n  0x03\n  0x00\n    /* \"contracts/FundMe.sol\":406:424  owner = msg.sender */\n  0x0100\n  exp\n  dup2\n  sload\n  dup2\n  0xffffffffffffffffffffffffffffffffffffffff\n  mul\n  not\n  and\n  swap1\n  dup4\n  0xffffffffffffffffffffffffffffffffffffffff\n  and\n  mul\n  or\n  swap1\n  sstore\n  pop\n    /* \"contracts/FundMe.sol\":95:2329  contract FundMe {\r... */\n  dataSize(sub_0)\n  dup1\n  dataOffset(sub_0)\n  0x00\n  codecopy\n  0x00\n  return\nstop\n\nsub_0: assembly {\n        /* \"contracts/FundMe.sol\":95:2329  contract FundMe {\r... */\n      mstore(0x40, 0x80)\n      jumpi(tag_1, lt(calldatasize, 0x04))\n      shr(0xe0, calldataload(0x00))\n      dup1\n      0x3ccfd60b\n      eq\n      tag_2\n      jumpi\n      dup1\n      0x3e47d6f3\n      eq\n      tag_3\n      jumpi\n      dup1\n      0x8da5cb5b\n      eq\n      tag_4\n      jumpi\n      dup1\n      0xb60d4288\n      eq\n      tag_5\n      jumpi\n      dup1\n      0xdc0d3dff\n      eq\n      tag_6\n      jumpi\n      dup1\n      0xdc992aa0\n      eq\n      tag_7\n      jumpi\n    tag_1:\n      0x00\n      dup1\n      revert\n        /* \"contracts/FundMe.sol\":1030:2125  function withdraw() public onlyOwner{\r... */\n    tag_2:\n      callvalue\n      dup1\n      iszero\n      tag_8\n      jumpi\n      0x00\n      dup1\n      revert\n    tag_8:\n      pop\n      tag_9\n      tag_10\n      jump\t// in\n    tag_9:\n      stop\n        /* \"contracts/FundMe.sol\":232:288  mapping(address => uint256) public addressToAmountFunded */\n    tag_3:\n      callvalue\n      dup1\n      iszero\n      tag_11\n      jumpi\n      0x00\n      dup1\n      revert\n    tag_11:\n      pop\n      tag_12\n      0x04\n      dup1\n      calldatasize\n      sub\n      dup2\n      add\n      swap1\n      tag_13\n      swap2\n      swap1\n      tag_14\n      jump\t// in\n    tag_13:\n      tag_15\n      jump\t// in\n    tag_12:\n      mload(0x40)\n      tag_16\n      swap2\n      swap1\n      tag_17\n      jump\t// in\n    tag_16:\n      mload(0x40)\n      dup1\n      swap2\n      sub\n      swap1\n      return\n        /* \"contracts/FundMe.sol\":297:317  address public owner */\n    tag_4:\n      callvalue\n      dup1\n      iszero\n      tag_18\n      jumpi\n      0x00\n      dup1\n      revert\n    tag_18:\n      pop\n      tag_19\n      tag_20\n      jump\t// in\n    tag_19:\n      mload(0x40)\n      tag_21\n      swap2\n      swap1\n      tag_22\n      jump\t// in\n    tag_21:\n      mload(0x40)\n      dup1\n      swap2\n      sub\n      swap1\n      return\n        /* \"contracts/FundMe.sol\":554:1020  function fund() public payable {\r... */\n    tag_5:\n      tag_23\n      tag_24\n      jump\t// in\n    tag_23:\n      stop\n        /* \"contracts/FundMe.sol\":201:225  address[] public funders */\n    tag_6:\n      callvalue\n      dup1\n      iszero\n      tag_25\n      jumpi\n      0x00\n      dup1\n      revert\n    tag_25:\n      pop\n      tag_26\n      0x04\n      dup1\n      calldatasize\n      sub\n      dup2\n      add\n      swap1\n      tag_27\n      swap2\n      swap1\n      tag_28\n      jump\t// in\n    tag_27:\n      tag_29\n      jump\t// in\n    tag_26:\n      mload(0x40)\n      tag_30\n      swap2\n      swap1\n      tag_22\n      jump\t// in\n    tag_30:\n      mload(0x40)\n      dup1\n      swap2\n      sub\n      swap1\n      return\n        /* \"contracts/FundMe.sol\":159:192  uint256 public minUSD = 50 * 1e18 */\n    tag_7:\n      callvalue\n      dup1\n      iszero\n      tag_31\n      jumpi\n      0x00\n      dup1\n      revert\n    tag_31:\n      pop\n      tag_32\n      tag_33\n      jump\t// in\n    tag_32:\n      mload(0x40)\n      tag_34\n      swap2\n      swap1\n      tag_17\n      jump\t// in\n    tag_34:\n      mload(0x40)\n      dup1\n      swap2\n      sub\n      swap1\n      return\n        /* \"contracts/FundMe.sol\":1030:2125  function withdraw() public onlyOwner{\r... */\n    tag_10:\n        /* \"contracts/FundMe.sol\":2187:2192  owner */\n      0x03\n      0x00\n      swap1\n      sload\n      swap1\n      0x0100\n      exp\n      swap1\n      div\n      0xffffffffffffffffffffffffffffffffffffffff\n      and\n        /* \"contracts/FundMe.sol\":2173:2192  msg.sender == owner */\n      0xffffffffffffffffffffffffffffffffffffffff\n      and\n        /* \"contracts/FundMe.sol\":2173:2183  msg.sender */\n      caller\n        /* \"contracts/FundMe.sol\":2173:2192  msg.sender == owner */\n      0xffffffffffffffffffffffffffffffffffffffff\n      and\n      eq\n        /* \"contracts/FundMe.sol\":2165:2221  require(msg.sender == owner, \"sender is not the owner!\") */\n      tag_36\n      jumpi\n      mload(0x40)\n      0x08c379a000000000000000000000000000000000000000000000000000000000\n      dup2\n      mstore\n      0x04\n      add\n      tag_37\n      swap1\n      tag_38\n      jump\t// in\n    tag_37:\n      mload(0x40)\n      dup1\n      swap2\n      sub\n      swap1\n      revert\n    tag_36:\n        /* \"contracts/FundMe.sol\":1161:1180  uint256 funderIndex */\n      0x00\n        /* \"contracts/FundMe.sol\":1156:1364  for (uint256 funderIndex = 0; funderIndex < funders.length; funderIndex++) {\r... */\n    tag_40:\n        /* \"contracts/FundMe.sol\":1200:1207  funders */\n      0x01\n        /* \"contracts/FundMe.sol\":1200:1214  funders.length */\n      dup1\n      sload\n      swap1\n      pop\n        /* \"contracts/FundMe.sol\":1186:1197  funderIndex */\n      dup2\n        /* \"contracts/FundMe.sol\":1186:1214  funderIndex < funders.length */\n      lt\n        /* \"contracts/FundMe.sol\":1156:1364  for (uint256 funderIndex = 0; funderIndex < funders.length; funderIndex++) {\r... */\n      iszero\n      tag_41\n      jumpi\n        /* \"contracts/FundMe.sol\":1267:1281  address funder */\n      0x00\n        /* \"contracts/FundMe.sol\":1284:1291  funders */\n      0x01\n        /* \"contracts/FundMe.sol\":1292:1303  funderIndex */\n      dup3\n        /* \"contracts/FundMe.sol\":1284:1304  funders[funderIndex] */\n      dup2\n      sload\n      dup2\n      lt\n      tag_43\n      jumpi\n      mstore(0x00, 0x4e487b7100000000000000000000000000000000000000000000000000000000)\n      mstore(0x04, 0x32)\n      revert(0x00, 0x24)\n    tag_43:\n      swap1\n      0x00\n      mstore\n      keccak256(0x00, 0x20)\n      add\n      0x00\n      swap1\n      sload\n      swap1\n      0x0100\n      exp\n      swap1\n      div\n      0xffffffffffffffffffffffffffffffffffffffff\n      and\n        /* \"contracts/FundMe.sol\":1267:1304  address funder = funders[funderIndex] */\n      swap1\n      pop\n        /* \"contracts/FundMe.sol\":1351:1352  0 */\n      0x00\n        /* \"contracts/FundMe.sol\":1319:1340  addressToAmountFunded */\n      0x02\n        /* \"contracts/FundMe.sol\":1319:1348  addressToAmountFunded[funder] */\n      0x00\n        /* \"contracts/FundMe.sol\":1341:1347  funder */\n      dup4\n        /* \"contracts/FundMe.sol\":1319:1348  addressToAmountFunded[funder] */\n      0xffffffffffffffffffffffffffffffffffffffff\n      and\n      0xffffffffffffffffffffffffffffffffffffffff\n      and\n      dup2\n      mstore\n      0x20\n      add\n      swap1\n      dup2\n      mstore\n      0x20\n      add\n      0x00\n      keccak256\n        /* \"contracts/FundMe.sol\":1319:1352  addressToAmountFunded[funder] = 0 */\n      dup2\n      swap1\n      sstore\n      pop\n        /* \"contracts/FundMe.sol\":1156:1364  for (uint256 funderIndex = 0; funderIndex < funders.length; funderIndex++) {\r... */\n      pop\n        /* \"contracts/FundMe.sol\":1216:1229  funderIndex++ */\n      dup1\n      dup1\n      tag_45\n      swap1\n      tag_46\n      jump\t// in\n    tag_45:\n      swap2\n      pop\n      pop\n        /* \"contracts/FundMe.sol\":1156:1364  for (uint256 funderIndex = 0; funderIndex < funders.length; funderIndex++) {\r... */\n      jump(tag_40)\n    tag_41:\n      pop\n        /* \"contracts/FundMe.sol\":1478:1479  0 */\n      0x00\n        /* \"contracts/FundMe.sol\":1464:1480  new address[](0) */\n      0xffffffffffffffff\n      dup2\n      gt\n      iszero\n      tag_47\n      jumpi\n      mstore(0x00, 0x4e487b7100000000000000000000000000000000000000000000000000000000)\n      mstore(0x04, 0x41)\n      revert(0x00, 0x24)\n    tag_47:\n      mload(0x40)\n      swap1\n      dup1\n      dup3\n      mstore\n      dup1\n      0x20\n      mul\n      0x20\n      add\n      dup3\n      add\n      0x40\n      mstore\n      dup1\n      iszero\n      tag_48\n      jumpi\n      dup2\n      0x20\n      add\n      0x20\n      dup3\n      mul\n      dup1\n      calldatasize\n      dup4\n      calldatacopy\n      dup1\n      dup3\n      add\n      swap2\n      pop\n      pop\n      swap1\n      pop\n    tag_48:\n      pop\n        /* \"contracts/FundMe.sol\":1454:1461  funders */\n      0x01\n        /* \"contracts/FundMe.sol\":1454:1480  funders = new address[](0) */\n      swap1\n      dup1\n      mload\n      swap1\n      0x20\n      add\n      swap1\n      tag_49\n      swap3\n      swap2\n      swap1\n      tag_50\n      jump\t// in\n    tag_49:\n      pop\n        /* \"contracts/FundMe.sol\":1989:2005  bool callSuccess */\n      0x00\n        /* \"contracts/FundMe.sol\":2019:2029  msg.sender */\n      caller\n        /* \"contracts/FundMe.sol\":2011:2035  payable(msg.sender).call */\n      0xffffffffffffffffffffffffffffffffffffffff\n      and\n        /* \"contracts/FundMe.sol\":2043:2064  address(this).balance */\n      selfbalance\n        /* \"contracts/FundMe.sol\":2011:2069  payable(msg.sender).call{value: address(this).balance}(\"\") */\n      mload(0x40)\n      tag_51\n      swap1\n      tag_52\n      jump\t// in\n    tag_51:\n      0x00\n      mload(0x40)\n      dup1\n      dup4\n      sub\n      dup2\n      dup6\n      dup8\n      gas\n      call\n      swap3\n      pop\n      pop\n      pop\n      returndatasize\n      dup1\n      0x00\n      dup2\n      eq\n      tag_55\n      jumpi\n      mload(0x40)\n      swap2\n      pop\n      and(add(returndatasize, 0x3f), not(0x1f))\n      dup3\n      add\n      0x40\n      mstore\n      returndatasize\n      dup3\n      mstore\n      returndatasize\n      0x00\n      0x20\n      dup5\n      add\n      returndatacopy\n      jump(tag_54)\n    tag_55:\n      0x60\n      swap2\n      pop\n    tag_54:\n      pop\n        /* \"contracts/FundMe.sol\":1988:2069  (bool callSuccess, ) = payable(msg.sender).call{value: address(this).balance}(\"\") */\n      pop\n      swap1\n      pop\n        /* \"contracts/FundMe.sol\":2088:2099  callSuccess */\n      dup1\n        /* \"contracts/FundMe.sol\":2080:2115  require(callSuccess, \"Call failed\") */\n      tag_56\n      jumpi\n      mload(0x40)\n      0x08c379a000000000000000000000000000000000000000000000000000000000\n      dup2\n      mstore\n      0x04\n      add\n      tag_57\n      swap1\n      tag_58\n      jump\t// in\n    tag_57:\n      mload(0x40)\n      dup1\n      swap2\n      sub\n      swap1\n      revert\n    tag_56:\n        /* \"contracts/FundMe.sol\":2232:2233  _ */\n      pop\n        /* \"contracts/FundMe.sol\":1030:2125  function withdraw() public onlyOwner{\r... */\n      jump\t// out\n        /* \"contracts/FundMe.sol\":232:288  mapping(address => uint256) public addressToAmountFunded */\n    tag_15:\n      mstore(0x20, 0x02)\n      dup1\n      0x00\n      mstore\n      keccak256(0x00, 0x40)\n      0x00\n      swap2\n      pop\n      swap1\n      pop\n      sload\n      dup2\n      jump\t// out\n        /* \"contracts/FundMe.sol\":297:317  address public owner */\n    tag_20:\n      0x03\n      0x00\n      swap1\n      sload\n      swap1\n      0x0100\n      exp\n      swap1\n      div\n      0xffffffffffffffffffffffffffffffffffffffff\n      and\n      dup2\n      jump\t// out\n        /* \"contracts/FundMe.sol\":554:1020  function fund() public payable {\r... */\n    tag_24:\n        /* \"contracts/FundMe.sol\":776:782  minUSD */\n      sload(0x00)\n        /* \"contracts/FundMe.sol\":743:772  msg.value.getConversionRate() */\n      tag_60\n        /* \"contracts/FundMe.sol\":743:752  msg.value */\n      callvalue\n        /* \"contracts/FundMe.sol\":743:770  msg.value.getConversionRate */\n      tag_61\n        /* \"contracts/FundMe.sol\":743:772  msg.value.getConversionRate() */\n      jump\t// in\n    tag_60:\n        /* \"contracts/FundMe.sol\":743:782  msg.value.getConversionRate() >= minUSD */\n      lt\n      iszero\n        /* \"contracts/FundMe.sol\":735:805  require(msg.value.getConversionRate() >= minUSD, \"Didn't send enough\") */\n      tag_62\n      jumpi\n      mload(0x40)\n      0x08c379a000000000000000000000000000000000000000000000000000000000\n      dup2\n      mstore\n      0x04\n      add\n      tag_63\n      swap1\n      tag_64\n      jump\t// in\n    tag_63:\n      mload(0x40)\n      dup1\n      swap2\n      sub\n      swap1\n      revert\n    tag_62:\n        /* \"contracts/FundMe.sol\":929:936  funders */\n      0x01\n        /* \"contracts/FundMe.sol\":942:952  msg.sender */\n      caller\n        /* \"contracts/FundMe.sol\":929:953  funders.push(msg.sender) */\n      swap1\n      dup1\n      0x01\n      dup2\n      sload\n      add\n      dup1\n      dup3\n      sstore\n      dup1\n      swap2\n      pop\n      pop\n      0x01\n      swap1\n      sub\n      swap1\n      0x00\n      mstore\n      keccak256(0x00, 0x20)\n      add\n      0x00\n      swap1\n      swap2\n      swap1\n      swap2\n      swap1\n      swap2\n      0x0100\n      exp\n      dup2\n      sload\n      dup2\n      0xffffffffffffffffffffffffffffffffffffffff\n      mul\n      not\n      and\n      swap1\n      dup4\n      0xffffffffffffffffffffffffffffffffffffffff\n      and\n      mul\n      or\n      swap1\n      sstore\n      pop\n        /* \"contracts/FundMe.sol\":1001:1010  msg.value */\n      callvalue\n        /* \"contracts/FundMe.sol\":964:985  addressToAmountFunded */\n      0x02\n        /* \"contracts/FundMe.sol\":964:997  addressToAmountFunded[msg.sender] */\n      0x00\n        /* \"contracts/FundMe.sol\":986:996  msg.sender */\n      caller\n        /* \"contracts/FundMe.sol\":964:997  addressToAmountFunded[msg.sender] */\n      0xffffffffffffffffffffffffffffffffffffffff\n      and\n      0xffffffffffffffffffffffffffffffffffffffff\n      and\n      dup2\n      mstore\n      0x20\n      add\n      swap1\n      dup2\n      mstore\n      0x20\n      add\n      0x00\n      keccak256\n      0x00\n        /* \"contracts/FundMe.sol\":964:1010  addressToAmountFunded[msg.sender] += msg.value */\n      dup3\n      dup3\n      sload\n      tag_66\n      swap2\n      swap1\n      tag_67\n      jump\t// in\n    tag_66:\n      swap3\n      pop\n      pop\n      dup2\n      swap1\n      sstore\n      pop\n        /* \"contracts/FundMe.sol\":554:1020  function fund() public payable {\r... */\n      jump\t// out\n        /* \"contracts/FundMe.sol\":201:225  address[] public funders */\n    tag_29:\n      0x01\n      dup2\n      dup2\n      sload\n      dup2\n      lt\n      tag_68\n      jumpi\n      0x00\n      dup1\n      revert\n    tag_68:\n      swap1\n      0x00\n      mstore\n      keccak256(0x00, 0x20)\n      add\n      0x00\n      swap2\n      pop\n      sload\n      swap1\n      0x0100\n      exp\n      swap1\n      div\n      0xffffffffffffffffffffffffffffffffffffffff\n      and\n      dup2\n      jump\t// out\n        /* \"contracts/FundMe.sol\":159:192  uint256 public minUSD = 50 * 1e18 */\n    tag_33:\n      sload(0x00)\n      dup2\n      jump\t// out\n        /* \"contracts/PriceConverter.sol\":1151:1537  function getConversionRate(uint256 ethAmount) internal view returns(uint256) {\r... */\n    tag_61:\n        /* \"contracts/PriceConverter.sol\":1219:1226  uint256 */\n      0x00\n        /* \"contracts/PriceConverter.sol\":1239:1255  uint256 ethPrice */\n      dup1\n        /* \"contracts/PriceConverter.sol\":1258:1268  getPrice() */\n      tag_71\n        /* \"contracts/PriceConverter.sol\":1258:1266  getPrice */\n      tag_72\n        /* \"contracts/PriceConverter.sol\":1258:1268  getPrice() */\n      jump\t// in\n    tag_71:\n        /* \"contracts/PriceConverter.sol\":1239:1268  uint256 ethPrice = getPrice() */\n      swap1\n      pop\n        /* \"contracts/PriceConverter.sol\":1438:1460  uint256 ethAmountInUSD */\n      0x00\n        /* \"contracts/PriceConverter.sol\":1490:1494  1e18 */\n      0x0de0b6b3a7640000\n        /* \"contracts/PriceConverter.sol\":1476:1485  ethAmount */\n      dup5\n        /* \"contracts/PriceConverter.sol\":1465:1473  ethPrice */\n      dup4\n        /* \"contracts/PriceConverter.sol\":1465:1485  ethPrice * ethAmount */\n      tag_73\n      swap2\n      swap1\n      tag_74\n      jump\t// in\n    tag_73:\n        /* \"contracts/PriceConverter.sol\":1464:1495  (ethPrice * ethAmount) / (1e18) */\n      tag_75\n      swap2\n      swap1\n      tag_76\n      jump\t// in\n    tag_75:\n        /* \"contracts/PriceConverter.sol\":1438:1495  uint256 ethAmountInUSD =  (ethPrice * ethAmount) / (1e18) */\n      swap1\n      pop\n        /* \"contracts/PriceConverter.sol\":1515:1529  ethAmountInUSD */\n      dup1\n        /* \"contracts/PriceConverter.sol\":1508:1529  return ethAmountInUSD */\n      swap3\n      pop\n      pop\n      pop\n        /* \"contracts/PriceConverter.sol\":1151:1537  function getConversionRate(uint256 ethAmount) internal view returns(uint256) {\r... */\n      swap2\n      swap1\n      pop\n      jump\t// out\n        /* \"contracts/PriceConverter.sol\":282:784  function getPrice() internal view returns(uint256) {\r... */\n    tag_72:\n        /* \"contracts/PriceConverter.sol\":324:331  uint256 */\n      0x00\n        /* \"contracts/PriceConverter.sol\":488:519  AggregatorV3Interface priceFeed */\n      dup1\n        /* \"contracts/PriceConverter.sol\":544:586  0x694AA1769357215DE4FAC081bf1f309aDC325306 */\n      0x694aa1769357215de4fac081bf1f309adc325306\n        /* \"contracts/PriceConverter.sol\":488:587  AggregatorV3Interface priceFeed = AggregatorV3Interface(0x694AA1769357215DE4FAC081bf1f309aDC325306) */\n      swap1\n      pop\n        /* \"contracts/PriceConverter.sol\":600:613  int256 answer */\n      0x00\n        /* \"contracts/PriceConverter.sol\":620:629  priceFeed */\n      dup2\n        /* \"contracts/PriceConverter.sol\":620:645  priceFeed.latestRoundData */\n      0xffffffffffffffffffffffffffffffffffffffff\n      and\n      0xfeaf968c\n        /* \"contracts/PriceConverter.sol\":620:647  priceFeed.latestRoundData() */\n      mload(0x40)\n      dup2\n      0xffffffff\n      and\n      0xe0\n      shl\n      dup2\n      mstore\n      0x04\n      add\n      0xa0\n      mload(0x40)\n      dup1\n      dup4\n      sub\n      dup2\n      dup7\n      dup1\n      extcodesize\n      iszero\n      dup1\n      iszero\n      tag_78\n      jumpi\n      0x00\n      dup1\n      revert\n    tag_78:\n      pop\n      gas\n      staticcall\n      iszero\n      dup1\n      iszero\n      tag_80\n      jumpi\n      returndatasize\n      0x00\n      dup1\n      returndatacopy\n      revert(0x00, returndatasize)\n    tag_80:\n      pop\n      pop\n      pop\n      pop\n      mload(0x40)\n      returndatasize\n      not(0x1f)\n      0x1f\n      dup3\n      add\n      and\n      dup3\n      add\n      dup1\n      0x40\n      mstore\n      pop\n      dup2\n      add\n      swap1\n      tag_81\n      swap2\n      swap1\n      tag_82\n      jump\t// in\n    tag_81:\n        /* \"contracts/PriceConverter.sol\":598:647  (,int256 answer,,,) = priceFeed.latestRoundData() */\n      pop\n      pop\n      pop\n      swap2\n      pop\n      pop\n        /* \"contracts/PriceConverter.sol\":768:772  1e10 */\n      0x02540be400\n        /* \"contracts/PriceConverter.sol\":759:765  answer */\n      dup2\n        /* \"contracts/PriceConverter.sol\":759:772  answer * 1e10 */\n      tag_83\n      swap2\n      swap1\n      tag_84\n      jump\t// in\n    tag_83:\n        /* \"contracts/PriceConverter.sol\":744:773  return uint256(answer * 1e10) */\n      swap3\n      pop\n      pop\n      pop\n        /* \"contracts/PriceConverter.sol\":282:784  function getPrice() internal view returns(uint256) {\r... */\n      swap1\n      jump\t// out\n    tag_50:\n      dup3\n      dup1\n      sload\n      dup3\n      dup3\n      sstore\n      swap1\n      0x00\n      mstore\n      keccak256(0x00, 0x20)\n      swap1\n      dup2\n      add\n      swap3\n      dup3\n      iszero\n      tag_85\n      jumpi\n      swap2\n      0x20\n      mul\n      dup3\n      add\n    tag_86:\n      dup3\n      dup2\n      gt\n      iszero\n      tag_87\n      jumpi\n      dup3\n      mload\n      dup3\n      exp(0x0100, 0x00)\n      dup2\n      sload\n      dup2\n      0xffffffffffffffffffffffffffffffffffffffff\n      mul\n      not\n      and\n      swap1\n      dup4\n      0xffffffffffffffffffffffffffffffffffffffff\n      and\n      mul\n      or\n      swap1\n      sstore\n      pop\n      swap2\n      0x20\n      add\n      swap2\n      swap1\n      0x01\n      add\n      swap1\n      jump(tag_86)\n    tag_87:\n    tag_85:\n      pop\n      swap1\n      pop\n      tag_88\n      swap2\n      swap1\n      tag_89\n      jump\t// in\n    tag_88:\n      pop\n      swap1\n      jump\t// out\n    tag_89:\n    tag_90:\n      dup1\n      dup3\n      gt\n      iszero\n      tag_91\n      jumpi\n      0x00\n      dup2\n      0x00\n      swap1\n      sstore\n      pop\n      0x01\n      add\n      jump(tag_90)\n    tag_91:\n      pop\n      swap1\n      jump\t// out\n        /* \"#utility.yul\":7:146   */\n    tag_93:\n      0x00\n        /* \"#utility.yul\":91:97   */\n      dup2\n        /* \"#utility.yul\":78:98   */\n      calldataload\n        /* \"#utility.yul\":69:98   */\n      swap1\n      pop\n        /* \"#utility.yul\":107:140   */\n      tag_95\n        /* \"#utility.yul\":134:139   */\n      dup2\n        /* \"#utility.yul\":107:140   */\n      tag_96\n      jump\t// in\n    tag_95:\n        /* \"#utility.yul\":59:146   */\n      swap3\n      swap2\n      pop\n      pop\n      jump\t// out\n        /* \"#utility.yul\":152:293   */\n    tag_97:\n      0x00\n        /* \"#utility.yul\":239:245   */\n      dup2\n        /* \"#utility.yul\":233:246   */\n      mload\n        /* \"#utility.yul\":224:246   */\n      swap1\n      pop\n        /* \"#utility.yul\":255:287   */\n      tag_99\n        /* \"#utility.yul\":281:286   */\n      dup2\n        /* \"#utility.yul\":255:287   */\n      tag_100\n      jump\t// in\n    tag_99:\n        /* \"#utility.yul\":214:293   */\n      swap3\n      swap2\n      pop\n      pop\n      jump\t// out\n        /* \"#utility.yul\":299:438   */\n    tag_101:\n      0x00\n        /* \"#utility.yul\":383:389   */\n      dup2\n        /* \"#utility.yul\":370:390   */\n      calldataload\n        /* \"#utility.yul\":361:390   */\n      swap1\n      pop\n        /* \"#utility.yul\":399:432   */\n      tag_103\n        /* \"#utility.yul\":426:431   */\n      dup2\n        /* \"#utility.yul\":399:432   */\n      tag_104\n      jump\t// in\n    tag_103:\n        /* \"#utility.yul\":351:438   */\n      swap3\n      swap2\n      pop\n      pop\n      jump\t// out\n        /* \"#utility.yul\":444:587   */\n    tag_105:\n      0x00\n        /* \"#utility.yul\":532:538   */\n      dup2\n        /* \"#utility.yul\":526:539   */\n      mload\n        /* \"#utility.yul\":517:539   */\n      swap1\n      pop\n        /* \"#utility.yul\":548:581   */\n      tag_107\n        /* \"#utility.yul\":575:580   */\n      dup2\n        /* \"#utility.yul\":548:581   */\n      tag_104\n      jump\t// in\n    tag_107:\n        /* \"#utility.yul\":507:587   */\n      swap3\n      swap2\n      pop\n      pop\n      jump\t// out\n        /* \"#utility.yul\":593:734   */\n    tag_108:\n      0x00\n        /* \"#utility.yul\":680:686   */\n      dup2\n        /* \"#utility.yul\":674:687   */\n      mload\n        /* \"#utility.yul\":665:687   */\n      swap1\n      pop\n        /* \"#utility.yul\":696:728   */\n      tag_110\n        /* \"#utility.yul\":722:727   */\n      dup2\n        /* \"#utility.yul\":696:728   */\n      tag_111\n      jump\t// in\n    tag_110:\n        /* \"#utility.yul\":655:734   */\n      swap3\n      swap2\n      pop\n      pop\n      jump\t// out\n        /* \"#utility.yul\":740:1002   */\n    tag_14:\n      0x00\n        /* \"#utility.yul\":848:850   */\n      0x20\n        /* \"#utility.yul\":836:845   */\n      dup3\n        /* \"#utility.yul\":827:834   */\n      dup5\n        /* \"#utility.yul\":823:846   */\n      sub\n        /* \"#utility.yul\":819:851   */\n      slt\n        /* \"#utility.yul\":816:818   */\n      iszero\n      tag_113\n      jumpi\n        /* \"#utility.yul\":864:865   */\n      0x00\n        /* \"#utility.yul\":861:862   */\n      dup1\n        /* \"#utility.yul\":854:866   */\n      revert\n        /* \"#utility.yul\":816:818   */\n    tag_113:\n        /* \"#utility.yul\":907:908   */\n      0x00\n        /* \"#utility.yul\":932:985   */\n      tag_114\n        /* \"#utility.yul\":977:984   */\n      dup5\n        /* \"#utility.yul\":968:974   */\n      dup3\n        /* \"#utility.yul\":957:966   */\n      dup6\n        /* \"#utility.yul\":953:975   */\n      add\n        /* \"#utility.yul\":932:985   */\n      tag_93\n      jump\t// in\n    tag_114:\n        /* \"#utility.yul\":922:985   */\n      swap2\n      pop\n        /* \"#utility.yul\":878:995   */\n      pop\n        /* \"#utility.yul\":806:1002   */\n      swap3\n      swap2\n      pop\n      pop\n      jump\t// out\n        /* \"#utility.yul\":1008:1270   */\n    tag_28:\n      0x00\n        /* \"#utility.yul\":1116:1118   */\n      0x20\n        /* \"#utility.yul\":1104:1113   */\n      dup3\n        /* \"#utility.yul\":1095:1102   */\n      dup5\n        /* \"#utility.yul\":1091:1114   */\n      sub\n        /* \"#utility.yul\":1087:1119   */\n      slt\n        /* \"#utility.yul\":1084:1086   */\n      iszero\n      tag_116\n      jumpi\n        /* \"#utility.yul\":1132:1133   */\n      0x00\n        /* \"#utility.yul\":1129:1130   */\n      dup1\n        /* \"#utility.yul\":1122:1134   */\n      revert\n        /* \"#utility.yul\":1084:1086   */\n    tag_116:\n        /* \"#utility.yul\":1175:1176   */\n      0x00\n        /* \"#utility.yul\":1200:1253   */\n      tag_117\n        /* \"#utility.yul\":1245:1252   */\n      dup5\n        /* \"#utility.yul\":1236:1242   */\n      dup3\n        /* \"#utility.yul\":1225:1234   */\n      dup6\n        /* \"#utility.yul\":1221:1243   */\n      add\n        /* \"#utility.yul\":1200:1253   */\n      tag_101\n      jump\t// in\n    tag_117:\n        /* \"#utility.yul\":1190:1253   */\n      swap2\n      pop\n        /* \"#utility.yul\":1146:1263   */\n      pop\n        /* \"#utility.yul\":1074:1270   */\n      swap3\n      swap2\n      pop\n      pop\n      jump\t// out\n        /* \"#utility.yul\":1276:2180   */\n    tag_82:\n      0x00\n      dup1\n      0x00\n      dup1\n      0x00\n        /* \"#utility.yul\":1460:1463   */\n      0xa0\n        /* \"#utility.yul\":1448:1457   */\n      dup7\n        /* \"#utility.yul\":1439:1446   */\n      dup9\n        /* \"#utility.yul\":1435:1458   */\n      sub\n        /* \"#utility.yul\":1431:1464   */\n      slt\n        /* \"#utility.yul\":1428:1430   */\n      iszero\n      tag_119\n      jumpi\n        /* \"#utility.yul\":1477:1478   */\n      0x00\n        /* \"#utility.yul\":1474:1475   */\n      dup1\n        /* \"#utility.yul\":1467:1479   */\n      revert\n        /* \"#utility.yul\":1428:1430   */\n    tag_119:\n        /* \"#utility.yul\":1520:1521   */\n      0x00\n        /* \"#utility.yul\":1545:1608   */\n      tag_120\n        /* \"#utility.yul\":1600:1607   */\n      dup9\n        /* \"#utility.yul\":1591:1597   */\n      dup3\n        /* \"#utility.yul\":1580:1589   */\n      dup10\n        /* \"#utility.yul\":1576:1598   */\n      add\n        /* \"#utility.yul\":1545:1608   */\n      tag_108\n      jump\t// in\n    tag_120:\n        /* \"#utility.yul\":1535:1608   */\n      swap6\n      pop\n        /* \"#utility.yul\":1491:1618   */\n      pop\n        /* \"#utility.yul\":1657:1659   */\n      0x20\n        /* \"#utility.yul\":1683:1746   */\n      tag_121\n        /* \"#utility.yul\":1738:1745   */\n      dup9\n        /* \"#utility.yul\":1729:1735   */\n      dup3\n        /* \"#utility.yul\":1718:1727   */\n      dup10\n        /* \"#utility.yul\":1714:1736   */\n      add\n        /* \"#utility.yul\":1683:1746   */\n      tag_97\n      jump\t// in\n    tag_121:\n        /* \"#utility.yul\":1673:1746   */\n      swap5\n      pop\n        /* \"#utility.yul\":1628:1756   */\n      pop\n        /* \"#utility.yul\":1795:1797   */\n      0x40\n        /* \"#utility.yul\":1821:1885   */\n      tag_122\n        /* \"#utility.yul\":1877:1884   */\n      dup9\n        /* \"#utility.yul\":1868:1874   */\n      dup3\n        /* \"#utility.yul\":1857:1866   */\n      dup10\n        /* \"#utility.yul\":1853:1875   */\n      add\n        /* \"#utility.yul\":1821:1885   */\n      tag_105\n      jump\t// in\n    tag_122:\n        /* \"#utility.yul\":1811:1885   */\n      swap4\n      pop\n        /* \"#utility.yul\":1766:1895   */\n      pop\n        /* \"#utility.yul\":1934:1936   */\n      0x60\n        /* \"#utility.yul\":1960:2024   */\n      tag_123\n        /* \"#utility.yul\":2016:2023   */\n      dup9\n        /* \"#utility.yul\":2007:2013   */\n      dup3\n        /* \"#utility.yul\":1996:2005   */\n      dup10\n        /* \"#utility.yul\":1992:2014   */\n      add\n        /* \"#utility.yul\":1960:2024   */\n      tag_105\n      jump\t// in\n    tag_123:\n        /* \"#utility.yul\":1950:2024   */\n      swap3\n      pop\n        /* \"#utility.yul\":1905:2034   */\n      pop\n        /* \"#utility.yul\":2073:2076   */\n      0x80\n        /* \"#utility.yul\":2100:2163   */\n      tag_124\n        /* \"#utility.yul\":2155:2162   */\n      dup9\n        /* \"#utility.yul\":2146:2152   */\n      dup3\n        /* \"#utility.yul\":2135:2144   */\n      dup10\n        /* \"#utility.yul\":2131:2153   */\n      add\n        /* \"#utility.yul\":2100:2163   */\n      tag_108\n      jump\t// in\n    tag_124:\n        /* \"#utility.yul\":2090:2163   */\n      swap2\n      pop\n        /* \"#utility.yul\":2044:2173   */\n      pop\n        /* \"#utility.yul\":1418:2180   */\n      swap3\n      swap6\n      pop\n      swap3\n      swap6\n      swap1\n      swap4\n      pop\n      jump\t// out\n        /* \"#utility.yul\":2186:2304   */\n    tag_125:\n        /* \"#utility.yul\":2273:2297   */\n      tag_127\n        /* \"#utility.yul\":2291:2296   */\n      dup2\n        /* \"#utility.yul\":2273:2297   */\n      tag_128\n      jump\t// in\n    tag_127:\n        /* \"#utility.yul\":2268:2271   */\n      dup3\n        /* \"#utility.yul\":2261:2298   */\n      mstore\n        /* \"#utility.yul\":2251:2304   */\n      pop\n      pop\n      jump\t// out\n        /* \"#utility.yul\":2310:2619   */\n    tag_129:\n      0x00\n        /* \"#utility.yul\":2473:2540   */\n      tag_131\n        /* \"#utility.yul\":2537:2539   */\n      0x0b\n        /* \"#utility.yul\":2532:2535   */\n      dup4\n        /* \"#utility.yul\":2473:2540   */\n      tag_132\n      jump\t// in\n    tag_131:\n        /* \"#utility.yul\":2466:2540   */\n      swap2\n      pop\n        /* \"#utility.yul\":2570:2583   */\n      0x43616c6c206661696c6564000000000000000000000000000000000000000000\n        /* \"#utility.yul\":2566:2567   */\n      0x00\n        /* \"#utility.yul\":2561:2564   */\n      dup4\n        /* \"#utility.yul\":2557:2568   */\n      add\n        /* \"#utility.yul\":2550:2584   */\n      mstore\n        /* \"#utility.yul\":2610:2612   */\n      0x20\n        /* \"#utility.yul\":2605:2608   */\n      dup3\n        /* \"#utility.yul\":2601:2613   */\n      add\n        /* \"#utility.yul\":2594:2613   */\n      swap1\n      pop\n        /* \"#utility.yul\":2456:2619   */\n      swap2\n      swap1\n      pop\n      jump\t// out\n        /* \"#utility.yul\":2625:2941   */\n    tag_133:\n      0x00\n        /* \"#utility.yul\":2788:2855   */\n      tag_135\n        /* \"#utility.yul\":2852:2854   */\n      0x12\n        /* \"#utility.yul\":2847:2850   */\n      dup4\n        /* \"#utility.yul\":2788:2855   */\n      tag_132\n      jump\t// in\n    tag_135:\n        /* \"#utility.yul\":2781:2855   */\n      swap2\n      pop\n        /* \"#utility.yul\":2885:2905   */\n      0x4469646e27742073656e6420656e6f7567680000000000000000000000000000\n        /* \"#utility.yul\":2881:2882   */\n      0x00\n        /* \"#utility.yul\":2876:2879   */\n      dup4\n        /* \"#utility.yul\":2872:2883   */\n      add\n        /* \"#utility.yul\":2865:2906   */\n      mstore\n        /* \"#utility.yul\":2932:2934   */\n      0x20\n        /* \"#utility.yul\":2927:2930   */\n      dup3\n        /* \"#utility.yul\":2923:2935   */\n      add\n        /* \"#utility.yul\":2916:2935   */\n      swap1\n      pop\n        /* \"#utility.yul\":2771:2941   */\n      swap2\n      swap1\n      pop\n      jump\t// out\n        /* \"#utility.yul\":2947:3269   */\n    tag_136:\n      0x00\n        /* \"#utility.yul\":3110:3177   */\n      tag_138\n        /* \"#utility.yul\":3174:3176   */\n      0x18\n        /* \"#utility.yul\":3169:3172   */\n      dup4\n        /* \"#utility.yul\":3110:3177   */\n      tag_132\n      jump\t// in\n    tag_138:\n        /* \"#utility.yul\":3103:3177   */\n      swap2\n      pop\n        /* \"#utility.yul\":3207:3233   */\n      0x73656e646572206973206e6f7420746865206f776e6572210000000000000000\n        /* \"#utility.yul\":3203:3204   */\n      0x00\n        /* \"#utility.yul\":3198:3201   */\n      dup4\n        /* \"#utility.yul\":3194:3205   */\n      add\n        /* \"#utility.yul\":3187:3234   */\n      mstore\n        /* \"#utility.yul\":3260:3262   */\n      0x20\n        /* \"#utility.yul\":3255:3258   */\n      dup3\n        /* \"#utility.yul\":3251:3263   */\n      add\n        /* \"#utility.yul\":3244:3263   */\n      swap1\n      pop\n        /* \"#utility.yul\":3093:3269   */\n      swap2\n      swap1\n      pop\n      jump\t// out\n        /* \"#utility.yul\":3275:3572   */\n    tag_139:\n      0x00\n        /* \"#utility.yul\":3455:3538   */\n      tag_141\n        /* \"#utility.yul\":3536:3537   */\n      0x00\n        /* \"#utility.yul\":3531:3534   */\n      dup4\n        /* \"#utility.yul\":3455:3538   */\n      tag_142\n      jump\t// in\n    tag_141:\n        /* \"#utility.yul\":3448:3538   */\n      swap2\n      pop\n        /* \"#utility.yul\":3564:3565   */\n      0x00\n        /* \"#utility.yul\":3559:3562   */\n      dup3\n        /* \"#utility.yul\":3555:3566   */\n      add\n        /* \"#utility.yul\":3548:3566   */\n      swap1\n      pop\n        /* \"#utility.yul\":3438:3572   */\n      swap2\n      swap1\n      pop\n      jump\t// out\n        /* \"#utility.yul\":3578:3696   */\n    tag_143:\n        /* \"#utility.yul\":3665:3689   */\n      tag_145\n        /* \"#utility.yul\":3683:3688   */\n      dup2\n        /* \"#utility.yul\":3665:3689   */\n      tag_146\n      jump\t// in\n    tag_145:\n        /* \"#utility.yul\":3660:3663   */\n      dup3\n        /* \"#utility.yul\":3653:3690   */\n      mstore\n        /* \"#utility.yul\":3643:3696   */\n      pop\n      pop\n      jump\t// out\n        /* \"#utility.yul\":3702:4081   */\n    tag_52:\n      0x00\n        /* \"#utility.yul\":3908:4055   */\n      tag_148\n        /* \"#utility.yul\":4051:4054   */\n      dup3\n        /* \"#utility.yul\":3908:4055   */\n      tag_139\n      jump\t// in\n    tag_148:\n        /* \"#utility.yul\":3901:4055   */\n      swap2\n      pop\n        /* \"#utility.yul\":4072:4075   */\n      dup2\n        /* \"#utility.yul\":4065:4075   */\n      swap1\n      pop\n        /* \"#utility.yul\":3890:4081   */\n      swap2\n      swap1\n      pop\n      jump\t// out\n        /* \"#utility.yul\":4087:4309   */\n    tag_22:\n      0x00\n        /* \"#utility.yul\":4218:4220   */\n      0x20\n        /* \"#utility.yul\":4207:4216   */\n      dup3\n        /* \"#utility.yul\":4203:4221   */\n      add\n        /* \"#utility.yul\":4195:4221   */\n      swap1\n      pop\n        /* \"#utility.yul\":4231:4302   */\n      tag_150\n        /* \"#utility.yul\":4299:4300   */\n      0x00\n        /* \"#utility.yul\":4288:4297   */\n      dup4\n        /* \"#utility.yul\":4284:4301   */\n      add\n        /* \"#utility.yul\":4275:4281   */\n      dup5\n        /* \"#utility.yul\":4231:4302   */\n      tag_125\n      jump\t// in\n    tag_150:\n        /* \"#utility.yul\":4185:4309   */\n      swap3\n      swap2\n      pop\n      pop\n      jump\t// out\n        /* \"#utility.yul\":4315:4734   */\n    tag_58:\n      0x00\n        /* \"#utility.yul\":4519:4521   */\n      0x20\n        /* \"#utility.yul\":4508:4517   */\n      dup3\n        /* \"#utility.yul\":4504:4522   */\n      add\n        /* \"#utility.yul\":4496:4522   */\n      swap1\n      pop\n        /* \"#utility.yul\":4568:4577   */\n      dup2\n        /* \"#utility.yul\":4562:4566   */\n      dup2\n        /* \"#utility.yul\":4558:4578   */\n      sub\n        /* \"#utility.yul\":4554:4555   */\n      0x00\n        /* \"#utility.yul\":4543:4552   */\n      dup4\n        /* \"#utility.yul\":4539:4556   */\n      add\n        /* \"#utility.yul\":4532:4579   */\n      mstore\n        /* \"#utility.yul\":4596:4727   */\n      tag_152\n        /* \"#utility.yul\":4722:4726   */\n      dup2\n        /* \"#utility.yul\":4596:4727   */\n      tag_129\n      jump\t// in\n    tag_152:\n        /* \"#utility.yul\":4588:4727   */\n      swap1\n      pop\n        /* \"#utility.yul\":4486:4734   */\n      swap2\n      swap1\n      pop\n      jump\t// out\n        /* \"#utility.yul\":4740:5159   */\n    tag_64:\n      0x00\n        /* \"#utility.yul\":4944:4946   */\n      0x20\n        /* \"#utility.yul\":4933:4942   */\n      dup3\n        /* \"#utility.yul\":4929:4947   */\n      add\n        /* \"#utility.yul\":4921:4947   */\n      swap1\n      pop\n        /* \"#utility.yul\":4993:5002   */\n      dup2\n        /* \"#utility.yul\":4987:4991   */\n      dup2\n        /* \"#utility.yul\":4983:5003   */\n      sub\n        /* \"#utility.yul\":4979:4980   */\n      0x00\n        /* \"#utility.yul\":4968:4977   */\n      dup4\n        /* \"#utility.yul\":4964:4981   */\n      add\n        /* \"#utility.yul\":4957:5004   */\n      mstore\n        /* \"#utility.yul\":5021:5152   */\n      tag_154\n        /* \"#utility.yul\":5147:5151   */\n      dup2\n        /* \"#utility.yul\":5021:5152   */\n      tag_133\n      jump\t// in\n    tag_154:\n        /* \"#utility.yul\":5013:5152   */\n      swap1\n      pop\n        /* \"#utility.yul\":4911:5159   */\n      swap2\n      swap1\n      pop\n      jump\t// out\n        /* \"#utility.yul\":5165:5584   */\n    tag_38:\n      0x00\n        /* \"#utility.yul\":5369:5371   */\n      0x20\n        /* \"#utility.yul\":5358:5367   */\n      dup3\n        /* \"#utility.yul\":5354:5372   */\n      add\n        /* \"#utility.yul\":5346:5372   */\n      swap1\n      pop\n        /* \"#utility.yul\":5418:5427   */\n      dup2\n        /* \"#utility.yul\":5412:5416   */\n      dup2\n        /* \"#utility.yul\":5408:5428   */\n      sub\n        /* \"#utility.yul\":5404:5405   */\n      0x00\n        /* \"#utility.yul\":5393:5402   */\n      dup4\n        /* \"#utility.yul\":5389:5406   */\n      add\n        /* \"#utility.yul\":5382:5429   */\n      mstore\n        /* \"#utility.yul\":5446:5577   */\n      tag_156\n        /* \"#utility.yul\":5572:5576   */\n      dup2\n        /* \"#utility.yul\":5446:5577   */\n      tag_136\n      jump\t// in\n    tag_156:\n        /* \"#utility.yul\":5438:5577   */\n      swap1\n      pop\n        /* \"#utility.yul\":5336:5584   */\n      swap2\n      swap1\n      pop\n      jump\t// out\n        /* \"#utility.yul\":5590:5812   */\n    tag_17:\n      0x00\n        /* \"#utility.yul\":5721:5723   */\n      0x20\n        /* \"#utility.yul\":5710:5719   */\n      dup3\n        /* \"#utility.yul\":5706:5724   */\n      add\n        /* \"#utility.yul\":5698:5724   */\n      swap1\n      pop\n        /* \"#utility.yul\":5734:5805   */\n      tag_158\n        /* \"#utility.yul\":5802:5803   */\n      0x00\n        /* \"#utility.yul\":5791:5800   */\n      dup4\n        /* \"#utility.yul\":5787:5804   */\n      add\n        /* \"#utility.yul\":5778:5784   */\n      dup5\n        /* \"#utility.yul\":5734:5805   */\n      tag_143\n      jump\t// in\n    tag_158:\n        /* \"#utility.yul\":5688:5812   */\n      swap3\n      swap2\n      pop\n      pop\n      jump\t// out\n        /* \"#utility.yul\":5818:5965   */\n    tag_142:\n      0x00\n        /* \"#utility.yul\":5956:5959   */\n      dup2\n        /* \"#utility.yul\":5941:5959   */\n      swap1\n      pop\n        /* \"#utility.yul\":5931:5965   */\n      swap3\n      swap2\n      pop\n      pop\n      jump\t// out\n        /* \"#utility.yul\":5971:6140   */\n    tag_132:\n      0x00\n        /* \"#utility.yul\":6089:6095   */\n      dup3\n        /* \"#utility.yul\":6084:6087   */\n      dup3\n        /* \"#utility.yul\":6077:6096   */\n      mstore\n        /* \"#utility.yul\":6129:6133   */\n      0x20\n        /* \"#utility.yul\":6124:6127   */\n      dup3\n        /* \"#utility.yul\":6120:6134   */\n      add\n        /* \"#utility.yul\":6105:6134   */\n      swap1\n      pop\n        /* \"#utility.yul\":6067:6140   */\n      swap3\n      swap2\n      pop\n      pop\n      jump\t// out\n        /* \"#utility.yul\":6146:6451   */\n    tag_67:\n      0x00\n        /* \"#utility.yul\":6205:6225   */\n      tag_162\n        /* \"#utility.yul\":6223:6224   */\n      dup3\n        /* \"#utility.yul\":6205:6225   */\n      tag_146\n      jump\t// in\n    tag_162:\n        /* \"#utility.yul\":6200:6225   */\n      swap2\n      pop\n        /* \"#utility.yul\":6239:6259   */\n      tag_163\n        /* \"#utility.yul\":6257:6258   */\n      dup4\n        /* \"#utility.yul\":6239:6259   */\n      tag_146\n      jump\t// in\n    tag_163:\n        /* \"#utility.yul\":6234:6259   */\n      swap3\n      pop\n        /* \"#utility.yul\":6393:6394   */\n      dup3\n        /* \"#utility.yul\":6325:6391   */\n      0xffffffffffffffffffffffffffffffffffffffffffffffffffffffffffffffff\n        /* \"#utility.yul\":6321:6395   */\n      sub\n        /* \"#utility.yul\":6318:6319   */\n      dup3\n        /* \"#utility.yul\":6315:6396   */\n      gt\n        /* \"#utility.yul\":6312:6314   */\n      iszero\n      tag_164\n      jumpi\n        /* \"#utility.yul\":6399:6417   */\n      tag_165\n      tag_166\n      jump\t// in\n    tag_165:\n        /* \"#utility.yul\":6312:6314   */\n    tag_164:\n        /* \"#utility.yul\":6443:6444   */\n      dup3\n        /* \"#utility.yul\":6440:6441   */\n      dup3\n        /* \"#utility.yul\":6436:6445   */\n      add\n        /* \"#utility.yul\":6429:6445   */\n      swap1\n      pop\n        /* \"#utility.yul\":6190:6451   */\n      swap3\n      swap2\n      pop\n      pop\n      jump\t// out\n        /* \"#utility.yul\":6457:6642   */\n    tag_76:\n      0x00\n        /* \"#utility.yul\":6514:6534   */\n      tag_168\n        /* \"#utility.yul\":6532:6533   */\n      dup3\n        /* \"#utility.yul\":6514:6534   */\n      tag_146\n      jump\t// in\n    tag_168:\n        /* \"#utility.yul\":6509:6534   */\n      swap2\n      pop\n        /* \"#utility.yul\":6548:6568   */\n      tag_169\n        /* \"#utility.yul\":6566:6567   */\n      dup4\n        /* \"#utility.yul\":6548:6568   */\n      tag_146\n      jump\t// in\n    tag_169:\n        /* \"#utility.yul\":6543:6568   */\n      swap3\n      pop\n        /* \"#utility.yul\":6587:6588   */\n      dup3\n        /* \"#utility.yul\":6577:6579   */\n      tag_170\n      jumpi\n        /* \"#utility.yul\":6592:6610   */\n      tag_171\n      tag_172\n      jump\t// in\n    tag_171:\n        /* \"#utility.yul\":6577:6579   */\n    tag_170:\n        /* \"#utility.yul\":6634:6635   */\n      dup3\n        /* \"#utility.yul\":6631:6632   */\n      dup3\n        /* \"#utility.yul\":6627:6636   */\n      div\n        /* \"#utility.yul\":6622:6636   */\n      swap1\n      pop\n        /* \"#utility.yul\":6499:6642   */\n      swap3\n      swap2\n      pop\n      pop\n      jump\t// out\n        /* \"#utility.yul\":6648:7639   */\n    tag_84:\n      0x00\n        /* \"#utility.yul\":6710:6729   */\n      tag_174\n        /* \"#utility.yul\":6727:6728   */\n      dup3\n        /* \"#utility.yul\":6710:6729   */\n      tag_175\n      jump\t// in\n    tag_174:\n        /* \"#utility.yul\":6705:6729   */\n      swap2\n      pop\n        /* \"#utility.yul\":6743:6762   */\n      tag_176\n        /* \"#utility.yul\":6760:6761   */\n      dup4\n        /* \"#utility.yul\":6743:6762   */\n      tag_175\n      jump\t// in\n    tag_176:\n        /* \"#utility.yul\":6738:6762   */\n      swap3\n      pop\n        /* \"#utility.yul\":6944:6945   */\n      dup3\n        /* \"#utility.yul\":6876:6942   */\n      0x7fffffffffffffffffffffffffffffffffffffffffffffffffffffffffffffff\n        /* \"#utility.yul\":6872:6946   */\n      div\n        /* \"#utility.yul\":6869:6870   */\n      dup3\n        /* \"#utility.yul\":6866:6947   */\n      gt\n        /* \"#utility.yul\":6861:6862   */\n      0x00\n        /* \"#utility.yul\":6858:6859   */\n      dup5\n        /* \"#utility.yul\":6854:6863   */\n      sgt\n        /* \"#utility.yul\":6850:6851   */\n      0x00\n        /* \"#utility.yul\":6847:6848   */\n      dup5\n        /* \"#utility.yul\":6843:6852   */\n      sgt\n        /* \"#utility.yul\":6839:6864   */\n      and\n        /* \"#utility.yul\":6835:6948   */\n      and\n        /* \"#utility.yul\":6832:6834   */\n      iszero\n      tag_177\n      jumpi\n        /* \"#utility.yul\":6951:6969   */\n      tag_178\n      tag_166\n      jump\t// in\n    tag_178:\n        /* \"#utility.yul\":6832:6834   */\n    tag_177:\n        /* \"#utility.yul\":7155:7156   */\n      dup2\n        /* \"#utility.yul\":7087:7153   */\n      0x8000000000000000000000000000000000000000000000000000000000000000\n        /* \"#utility.yul\":7082:7157   */\n      sdiv\n        /* \"#utility.yul\":7079:7080   */\n      dup4\n        /* \"#utility.yul\":7075:7158   */\n      slt\n        /* \"#utility.yul\":7070:7071   */\n      0x00\n        /* \"#utility.yul\":7067:7068   */\n      dup5\n        /* \"#utility.yul\":7063:7072   */\n      slt\n        /* \"#utility.yul\":7059:7060   */\n      0x00\n        /* \"#utility.yul\":7056:7057   */\n      dup5\n        /* \"#utility.yul\":7052:7061   */\n      sgt\n        /* \"#utility.yul\":7048:7073   */\n      and\n        /* \"#utility.yul\":7044:7159   */\n      and\n        /* \"#utility.yul\":7041:7043   */\n      iszero\n      tag_179\n      jumpi\n        /* \"#utility.yul\":7162:7180   */\n      tag_180\n      tag_166\n      jump\t// in\n    tag_180:\n        /* \"#utility.yul\":7041:7043   */\n    tag_179:\n        /* \"#utility.yul\":7366:7367   */\n      dup3\n        /* \"#utility.yul\":7298:7364   */\n      0x8000000000000000000000000000000000000000000000000000000000000000\n        /* \"#utility.yul\":7293:7368   */\n      sdiv\n        /* \"#utility.yul\":7290:7291   */\n      dup3\n        /* \"#utility.yul\":7286:7369   */\n      slt\n        /* \"#utility.yul\":7281:7282   */\n      0x00\n        /* \"#utility.yul\":7278:7279   */\n      dup5\n        /* \"#utility.yul\":7274:7283   */\n      sgt\n        /* \"#utility.yul\":7270:7271   */\n      0x00\n        /* \"#utility.yul\":7267:7268   */\n      dup5\n        /* \"#utility.yul\":7263:7272   */\n      slt\n        /* \"#utility.yul\":7259:7284   */\n      and\n        /* \"#utility.yul\":7255:7370   */\n      and\n        /* \"#utility.yul\":7252:7254   */\n      iszero\n      tag_181\n      jumpi\n        /* \"#utility.yul\":7373:7391   */\n      tag_182\n      tag_166\n      jump\t// in\n    tag_182:\n        /* \"#utility.yul\":7252:7254   */\n    tag_181:\n        /* \"#utility.yul\":7576:7577   */\n      dup3\n        /* \"#utility.yul\":7508:7574   */\n      0x7fffffffffffffffffffffffffffffffffffffffffffffffffffffffffffffff\n        /* \"#utility.yul\":7503:7578   */\n      sdiv\n        /* \"#utility.yul\":7500:7501   */\n      dup3\n        /* \"#utility.yul\":7496:7579   */\n      slt\n        /* \"#utility.yul\":7491:7492   */\n      0x00\n        /* \"#utility.yul\":7488:7489   */\n      dup5\n        /* \"#utility.yul\":7484:7493   */\n      slt\n        /* \"#utility.yul\":7480:7481   */\n      0x00\n        /* \"#utility.yul\":7477:7478   */\n      dup5\n        /* \"#utility.yul\":7473:7482   */\n      slt\n        /* \"#utility.yul\":7469:7494   */\n      and\n        /* \"#utility.yul\":7465:7580   */\n      and\n        /* \"#utility.yul\":7462:7464   */\n      iszero\n      tag_183\n      jumpi\n        /* \"#utility.yul\":7583:7601   */\n      tag_184\n      tag_166\n      jump\t// in\n    tag_184:\n        /* \"#utility.yul\":7462:7464   */\n    tag_183:\n        /* \"#utility.yul\":7631:7632   */\n      dup3\n        /* \"#utility.yul\":7628:7629   */\n      dup3\n        /* \"#utility.yul\":7624:7633   */\n      mul\n        /* \"#utility.yul\":7613:7633   */\n      swap1\n      pop\n        /* \"#utility.yul\":6695:7639   */\n      swap3\n      swap2\n      pop\n      pop\n      jump\t// out\n        /* \"#utility.yul\":7645:7993   */\n    tag_74:\n      0x00\n        /* \"#utility.yul\":7708:7728   */\n      tag_186\n        /* \"#utility.yul\":7726:7727   */\n      dup3\n        /* \"#utility.yul\":7708:7728   */\n      tag_146\n      jump\t// in\n    tag_186:\n        /* \"#utility.yul\":7703:7728   */\n      swap2\n      pop\n        /* \"#utility.yul\":7742:7762   */\n      tag_187\n        /* \"#utility.yul\":7760:7761   */\n      dup4\n        /* \"#utility.yul\":7742:7762   */\n      tag_146\n      jump\t// in\n    tag_187:\n        /* \"#utility.yul\":7737:7762   */\n      swap3\n      pop\n        /* \"#utility.yul\":7930:7931   */\n      dup2\n        /* \"#utility.yul\":7862:7928   */\n      0xffffffffffffffffffffffffffffffffffffffffffffffffffffffffffffffff\n        /* \"#utility.yul\":7858:7932   */\n      div\n        /* \"#utility.yul\":7855:7856   */\n      dup4\n        /* \"#utility.yul\":7852:7933   */\n      gt\n        /* \"#utility.yul\":7847:7848   */\n      dup3\n        /* \"#utility.yul\":7840:7849   */\n      iszero\n        /* \"#utility.yul\":7833:7850   */\n      iszero\n        /* \"#utility.yul\":7829:7934   */\n      and\n        /* \"#utility.yul\":7826:7828   */\n      iszero\n      tag_188\n      jumpi\n        /* \"#utility.yul\":7937:7955   */\n      tag_189\n      tag_166\n      jump\t// in\n    tag_189:\n        /* \"#utility.yul\":7826:7828   */\n    tag_188:\n        /* \"#utility.yul\":7985:7986   */\n      dup3\n        /* \"#utility.yul\":7982:7983   */\n      dup3\n        /* \"#utility.yul\":7978:7987   */\n      mul\n        /* \"#utility.yul\":7967:7987   */\n      swap1\n      pop\n        /* \"#utility.yul\":7693:7993   */\n      swap3\n      swap2\n      pop\n      pop\n      jump\t// out\n        /* \"#utility.yul\":7999:8095   */\n    tag_128:\n      0x00\n        /* \"#utility.yul\":8065:8089   */\n      tag_191\n        /* \"#utility.yul\":8083:8088   */\n      dup3\n        /* \"#utility.yul\":8065:8089   */\n      tag_192\n      jump\t// in\n    tag_191:\n        /* \"#utility.yul\":8054:8089   */\n      swap1\n      pop\n        /* \"#utility.yul\":8044:8095   */\n      swap2\n      swap1\n      pop\n      jump\t// out\n        /* \"#utility.yul\":8101:8177   */\n    tag_175:\n      0x00\n        /* \"#utility.yul\":8166:8171   */\n      dup2\n        /* \"#utility.yul\":8155:8171   */\n      swap1\n      pop\n        /* \"#utility.yul\":8145:8177   */\n      swap2\n      swap1\n      pop\n      jump\t// out\n        /* \"#utility.yul\":8183:8309   */\n    tag_192:\n      0x00\n        /* \"#utility.yul\":8260:8302   */\n      0xffffffffffffffffffffffffffffffffffffffff\n        /* \"#utility.yul\":8253:8258   */\n      dup3\n        /* \"#utility.yul\":8249:8303   */\n      and\n        /* \"#utility.yul\":8238:8303   */\n      swap1\n      pop\n        /* \"#utility.yul\":8228:8309   */\n      swap2\n      swap1\n      pop\n      jump\t// out\n        /* \"#utility.yul\":8315:8392   */\n    tag_146:\n      0x00\n        /* \"#utility.yul\":8381:8386   */\n      dup2\n        /* \"#utility.yul\":8370:8386   */\n      swap1\n      pop\n        /* \"#utility.yul\":8360:8392   */\n      swap2\n      swap1\n      pop\n      jump\t// out\n        /* \"#utility.yul\":8398:8503   */\n    tag_196:\n      0x00\n        /* \"#utility.yul\":8474:8496   */\n      0xffffffffffffffffffff\n        /* \"#utility.yul\":8467:8472   */\n      dup3\n        /* \"#utility.yul\":8463:8497   */\n      and\n        /* \"#utility.yul\":8452:8497   */\n      swap1\n      pop\n        /* \"#utility.yul\":8442:8503   */\n      swap2\n      swap1\n      pop\n      jump\t// out\n        /* \"#utility.yul\":8509:8742   */\n    tag_46:\n      0x00\n        /* \"#utility.yul\":8571:8595   */\n      tag_199\n        /* \"#utility.yul\":8589:8594   */\n      dup3\n        /* \"#utility.yul\":8571:8595   */\n      tag_146\n      jump\t// in\n    tag_199:\n        /* \"#utility.yul\":8562:8595   */\n      swap2\n      pop\n        /* \"#utility.yul\":8617:8683   */\n      0xffffffffffffffffffffffffffffffffffffffffffffffffffffffffffffffff\n        /* \"#utility.yul\":8610:8615   */\n      dup3\n        /* \"#utility.yul\":8607:8684   */\n      eq\n        /* \"#utility.yul\":8604:8606   */\n      iszero\n      tag_200\n      jumpi\n        /* \"#utility.yul\":8687:8705   */\n      tag_201\n      tag_166\n      jump\t// in\n    tag_201:\n        /* \"#utility.yul\":8604:8606   */\n    tag_200:\n        /* \"#utility.yul\":8734:8735   */\n      0x01\n        /* \"#utility.yul\":8727:8732   */\n      dup3\n        /* \"#utility.yul\":8723:8736   */\n      add\n        /* \"#utility.yul\":8716:8736   */\n      swap1\n      pop\n        /* \"#utility.yul\":8552:8742   */\n      swap2\n      swap1\n      pop\n      jump\t// out\n        /* \"#utility.yul\":8748:8928   */\n    tag_166:\n        /* \"#utility.yul\":8796:8873   */\n      0x4e487b7100000000000000000000000000000000000000000000000000000000\n        /* \"#utility.yul\":8793:8794   */\n      0x00\n        /* \"#utility.yul\":8786:8874   */\n      mstore\n        /* \"#utility.yul\":8893:8897   */\n      0x11\n        /* \"#utility.yul\":8890:8891   */\n      0x04\n        /* \"#utility.yul\":8883:8898   */\n      mstore\n        /* \"#utility.yul\":8917:8921   */\n      0x24\n        /* \"#utility.yul\":8914:8915   */\n      0x00\n        /* \"#utility.yul\":8907:8922   */\n      revert\n        /* \"#utility.yul\":8934:9114   */\n    tag_172:\n        /* \"#utility.yul\":8982:9059   */\n      0x4e487b7100000000000000000000000000000000000000000000000000000000\n        /* \"#utility.yul\":8979:8980   */\n      0x00\n        /* \"#utility.yul\":8972:9060   */\n      mstore\n        /* \"#utility.yul\":9079:9083   */\n      0x12\n        /* \"#utility.yul\":9076:9077   */\n      0x04\n        /* \"#utility.yul\":9069:9084   */\n      mstore\n        /* \"#utility.yul\":9103:9107   */\n      0x24\n        /* \"#utility.yul\":9100:9101   */\n      0x00\n        /* \"#utility.yul\":9093:9108   */\n      revert\n        /* \"#utility.yul\":9120:9242   */\n    tag_96:\n        /* \"#utility.yul\":9193:9217   */\n      tag_205\n        /* \"#utility.yul\":9211:9216   */\n      dup2\n        /* \"#utility.yul\":9193:9217   */\n      tag_128\n      jump\t// in\n    tag_205:\n        /* \"#utility.yul\":9186:9191   */\n      dup2\n        /* \"#utility.yul\":9183:9218   */\n      eq\n        /* \"#utility.yul\":9173:9175   */\n      tag_206\n      jumpi\n        /* \"#utility.yul\":9232:9233   */\n      0x00\n        /* \"#utility.yul\":9229:9230   */\n      dup1\n        /* \"#utility.yul\":9222:9234   */\n      revert\n        /* \"#utility.yul\":9173:9175   */\n    tag_206:\n        /* \"#utility.yul\":9163:9242   */\n      pop\n      jump\t// out\n        /* \"#utility.yul\":9248:9368   */\n    tag_100:\n        /* \"#utility.yul\":9320:9343   */\n      tag_208\n        /* \"#utility.yul\":9337:9342   */\n      dup2\n        /* \"#utility.yul\":9320:9343   */\n      tag_175\n      jump\t// in\n    tag_208:\n        /* \"#utility.yul\":9313:9318   */\n      dup2\n        /* \"#utility.yul\":9310:9344   */\n      eq\n        /* \"#utility.yul\":9300:9302   */\n      tag_209\n      jumpi\n        /* \"#utility.yul\":9358:9359   */\n      0x00\n        /* \"#utility.yul\":9355:9356   */\n      dup1\n        /* \"#utility.yul\":9348:9360   */\n      revert\n        /* \"#utility.yul\":9300:9302   */\n    tag_209:\n        /* \"#utility.yul\":9290:9368   */\n      pop\n      jump\t// out\n        /* \"#utility.yul\":9374:9496   */\n    tag_104:\n        /* \"#utility.yul\":9447:9471   */\n      tag_211\n        /* \"#utility.yul\":9465:9470   */\n      dup2\n        /* \"#utility.yul\":9447:9471   */\n      tag_146\n      jump\t// in\n    tag_211:\n        /* \"#utility.yul\":9440:9445   */\n      dup2\n        /* \"#utility.yul\":9437:9472   */\n      eq\n        /* \"#utility.yul\":9427:9429   */\n      tag_212\n      jumpi\n        /* \"#utility.yul\":9486:9487   */\n      0x00\n        /* \"#utility.yul\":9483:9484   */\n      dup1\n        /* \"#utility.yul\":9476:9488   */\n      revert\n        /* \"#utility.yul\":9427:9429   */\n    tag_212:\n        /* \"#utility.yul\":9417:9496   */\n      pop\n      jump\t// out\n        /* \"#utility.yul\":9502:9622   */\n    tag_111:\n        /* \"#utility.yul\":9574:9597   */\n      tag_214\n        /* \"#utility.yul\":9591:9596   */\n      dup2\n        /* \"#utility.yul\":9574:9597   */\n      tag_196\n      jump\t// in\n    tag_214:\n        /* \"#utility.yul\":9567:9572   */\n      dup2\n        /* \"#utility.yul\":9564:9598   */\n      eq\n        /* \"#utility.yul\":9554:9556   */\n      tag_215\n      jumpi\n        /* \"#utility.yul\":9612:9613   */\n      0x00\n        /* \"#utility.yul\":9609:9610   */\n      dup1\n        /* \"#utility.yul\":9602:9614   */\n      revert\n        /* \"#utility.yul\":9554:9556   */\n    tag_215:\n        /* \"#utility.yul\":9544:9622   */\n      pop\n      jump\t// out\n\n    auxdata: 0xa26469706673582212208e2d8102654022609f1693cc942cc72bc2076f60adb34a61644791ed250507db64736f6c63430008000033\n}\n",
				"bytecode": {
					"linkReferences": {},
					"object": "60806040526802b5e3af16b188000060005534801561001d57600080fd5b5033600360006101000a81548173ffffffffffffffffffffffffffffffffffffffff021916908373ffffffffffffffffffffffffffffffffffffffff160217905550610d858061006e6000396000f3fe6080604052600436106100555760003560e01c80633ccfd60b1461005a5780633e47d6f3146100715780638da5cb5b146100ae578063b60d4288146100d9578063dc0d3dff146100e3578063dc992aa014610120575b600080fd5b34801561006657600080fd5b5061006f61014b565b005b34801561007d57600080fd5b5061009860048036038101906100939190610770565b6103e3565b6040516100a591906109c1565b60405180910390f35b3480156100ba57600080fd5b506100c36103fb565b6040516100d09190610946565b60405180910390f35b6100e1610421565b005b3480156100ef57600080fd5b5061010a60048036038101906101059190610799565b610529565b6040516101179190610946565b60405180910390f35b34801561012c57600080fd5b50610135610568565b60405161014291906109c1565b60405180910390f35b600360009054906101000a900473ffffffffffffffffffffffffffffffffffffffff1673ffffffffffffffffffffffffffffffffffffffff163373ffffffffffffffffffffffffffffffffffffffff16146101db576040517f08c379a00000000000000000000000000000000000000000000000000000000081526004016101d2906109a1565b60405180910390fd5b60005b6001805490508110156102ad57600060018281548110610227577f4e487b7100000000000000000000000000000000000000000000000000000000600052603260045260246000fd5b9060005260206000200160009054906101000a900473ffffffffffffffffffffffffffffffffffffffff1690506000600260008373ffffffffffffffffffffffffffffffffffffffff1673ffffffffffffffffffffffffffffffffffffffff168152602001908152602001600020819055505080806102a590610c4c565b9150506101de565b50600067ffffffffffffffff8111156102ef577f4e487b7100000000000000000000000000000000000000000000000000000000600052604160045260246000fd5b60405190808252806020026020018201604052801561031d5781602001602082028036833780820191505090505b5060019080519060200190610333929190610660565b5060003373ffffffffffffffffffffffffffffffffffffffff164760405161035a90610931565b60006040518083038185875af1925050503d8060008114610397576040519150601f19603f3d011682016040523d82523d6000602084013e61039c565b606091505b50509050806103e0576040517f08c379a00000000000000000000000000000000000000000000000000000000081526004016103d790610961565b60405180910390fd5b50565b60026020528060005260406000206000915090505481565b600360009054906101000a900473ffffffffffffffffffffffffffffffffffffffff1681565b60005461042d3461056e565b101561046e576040517f08c379a000000000000000000000000000000000000000000000000000000000815260040161046590610981565b60405180910390fd5b6001339080600181540180825580915050600190039060005260206000200160009091909190916101000a81548173ffffffffffffffffffffffffffffffffffffffff021916908373ffffffffffffffffffffffffffffffffffffffff16021790555034600260003373ffffffffffffffffffffffffffffffffffffffff1673ffffffffffffffffffffffffffffffffffffffff168152602001908152602001600020600082825461052091906109f8565b92505081905550565b6001818154811061053957600080fd5b906000526020600020016000915054906101000a900473ffffffffffffffffffffffffffffffffffffffff1681565b60005481565b6000806105796105a8565b90506000670de0b6b3a764000084836105929190610b96565b61059c9190610a4e565b90508092505050919050565b60008073694aa1769357215de4fac081bf1f309adc325306905060008173ffffffffffffffffffffffffffffffffffffffff1663feaf968c6040518163ffffffff1660e01b815260040160a06040518083038186803b15801561060a57600080fd5b505afa15801561061e573d6000803e3d6000fd5b505050506040513d601f19601f8201168201806040525081019061064291906107c2565b5050509150506402540be400816106599190610a7f565b9250505090565b8280548282559060005260206000209081019282156106d9579160200282015b828111156106d85782518260006101000a81548173ffffffffffffffffffffffffffffffffffffffff021916908373ffffffffffffffffffffffffffffffffffffffff16021790555091602001919060010190610680565b5b5090506106e691906106ea565b5090565b5b808211156107035760008160009055506001016106eb565b5090565b60008135905061071681610cf3565b92915050565b60008151905061072b81610d0a565b92915050565b60008135905061074081610d21565b92915050565b60008151905061075581610d21565b92915050565b60008151905061076a81610d38565b92915050565b60006020828403121561078257600080fd5b600061079084828501610707565b91505092915050565b6000602082840312156107ab57600080fd5b60006107b984828501610731565b91505092915050565b600080600080600060a086880312156107da57600080fd5b60006107e88882890161075b565b95505060206107f98882890161071c565b945050604061080a88828901610746565b935050606061081b88828901610746565b925050608061082c8882890161075b565b9150509295509295909350565b61084281610bf0565b82525050565b6000610855600b836109e7565b91507f43616c6c206661696c65640000000000000000000000000000000000000000006000830152602082019050919050565b60006108956012836109e7565b91507f4469646e27742073656e6420656e6f75676800000000000000000000000000006000830152602082019050919050565b60006108d56018836109e7565b91507f73656e646572206973206e6f7420746865206f776e65722100000000000000006000830152602082019050919050565b60006109156000836109dc565b9150600082019050919050565b61092b81610c2c565b82525050565b600061093c82610908565b9150819050919050565b600060208201905061095b6000830184610839565b92915050565b6000602082019050818103600083015261097a81610848565b9050919050565b6000602082019050818103600083015261099a81610888565b9050919050565b600060208201905081810360008301526109ba816108c8565b9050919050565b60006020820190506109d66000830184610922565b92915050565b600081905092915050565b600082825260208201905092915050565b6000610a0382610c2c565b9150610a0e83610c2c565b9250827fffffffffffffffffffffffffffffffffffffffffffffffffffffffffffffffff03821115610a4357610a42610c95565b5b828201905092915050565b6000610a5982610c2c565b9150610a6483610c2c565b925082610a7457610a73610cc4565b5b828204905092915050565b6000610a8a82610c02565b9150610a9583610c02565b9250827f7fffffffffffffffffffffffffffffffffffffffffffffffffffffffffffffff0482116000841360008413161615610ad457610ad3610c95565b5b817f80000000000000000000000000000000000000000000000000000000000000000583126000841260008413161615610b1157610b10610c95565b5b827f80000000000000000000000000000000000000000000000000000000000000000582126000841360008412161615610b4e57610b4d610c95565b5b827f7fffffffffffffffffffffffffffffffffffffffffffffffffffffffffffffff0582126000841260008412161615610b8b57610b8a610c95565b5b828202905092915050565b6000610ba182610c2c565b9150610bac83610c2c565b9250817fffffffffffffffffffffffffffffffffffffffffffffffffffffffffffffffff0483118215151615610be557610be4610c95565b5b828202905092915050565b6000610bfb82610c0c565b9050919050565b6000819050919050565b600073ffffffffffffffffffffffffffffffffffffffff82169050919050565b6000819050919050565b600069ffffffffffffffffffff82169050919050565b6000610c5782610c2c565b91507fffffffffffffffffffffffffffffffffffffffffffffffffffffffffffffffff821415610c8a57610c89610c95565b5b600182019050919050565b7f4e487b7100000000000000000000000000000000000000000000000000000000600052601160045260246000fd5b7f4e487b7100000000000000000000000000000000000000000000000000000000600052601260045260246000fd5b610cfc81610bf0565b8114610d0757600080fd5b50565b610d1381610c02565b8114610d1e57600080fd5b50565b610d2a81610c2c565b8114610d3557600080fd5b50565b610d4181610c36565b8114610d4c57600080fd5b5056fea26469706673582212208e2d8102654022609f1693cc942cc72bc2076f60adb34a61644791ed250507db64736f6c63430008000033",
					"opcodes": "PUSH1 0x80 PUSH1 0x40 MSTORE PUSH9 0x2B5E3AF16B1880000 PUSH1 0x0 SSTORE CALLVALUE DUP1 ISZERO PUSH2 0x1D JUMPI PUSH1 0x0 DUP1 REVERT JUMPDEST POP CALLER PUSH1 0x3 PUSH1 0x0 PUSH2 0x100 EXP DUP2 SLOAD DUP2 PUSH20 0xFFFFFFFFFFFFFFFFFFFFFFFFFFFFFFFFFFFFFFFF MUL NOT AND SWAP1 DUP4 PUSH20 0xFFFFFFFFFFFFFFFFFFFFFFFFFFFFFFFFFFFFFFFF AND MUL OR SWAP1 SSTORE POP PUSH2 0xD85 DUP1 PUSH2 0x6E PUSH1 0x0 CODECOPY PUSH1 0x0 RETURN INVALID PUSH1 0x80 PUSH1 0x40 MSTORE PUSH1 0x4 CALLDATASIZE LT PUSH2 0x55 JUMPI PUSH1 0x0 CALLDATALOAD PUSH1 0xE0 SHR DUP1 PUSH4 0x3CCFD60B EQ PUSH2 0x5A JUMPI DUP1 PUSH4 0x3E47D6F3 EQ PUSH2 0x71 JUMPI DUP1 PUSH4 0x8DA5CB5B EQ PUSH2 0xAE JUMPI DUP1 PUSH4 0xB60D4288 EQ PUSH2 0xD9 JUMPI DUP1 PUSH4 0xDC0D3DFF EQ PUSH2 0xE3 JUMPI DUP1 PUSH4 0xDC992AA0 EQ PUSH2 0x120 JUMPI JUMPDEST PUSH1 0x0 DUP1 REVERT JUMPDEST CALLVALUE DUP1 ISZERO PUSH2 0x66 JUMPI PUSH1 0x0 DUP1 REVERT JUMPDEST POP PUSH2 0x6F PUSH2 0x14B JUMP JUMPDEST STOP JUMPDEST CALLVALUE DUP1 ISZERO PUSH2 0x7D JUMPI PUSH1 0x0 DUP1 REVERT JUMPDEST POP PUSH2 0x98 PUSH1 0x4 DUP1 CALLDATASIZE SUB DUP2 ADD SWAP1 PUSH2 0x93 SWAP2 SWAP1 PUSH2 0x770 JUMP JUMPDEST PUSH2 0x3E3 JUMP JUMPDEST PUSH1 0x40 MLOAD PUSH2 0xA5 SWAP2 SWAP1 PUSH2 0x9C1 JUMP JUMPDEST PUSH1 0x40 MLOAD DUP1 SWAP2 SUB SWAP1 RETURN JUMPDEST CALLVALUE DUP1 ISZERO PUSH2 0xBA JUMPI PUSH1 0x0 DUP1 REVERT JUMPDEST POP PUSH2 0xC3 PUSH2 0x3FB JUMP JUMPDEST PUSH1 0x40 MLOAD PUSH2 0xD0 SWAP2 SWAP1 PUSH2 0x946 JUMP JUMPDEST PUSH1 0x40 MLOAD DUP1 SWAP2 SUB SWAP1 RETURN JUMPDEST PUSH2 0xE1 PUSH2 0x421 JUMP JUMPDEST STOP JUMPDEST CALLVALUE DUP1 ISZERO PUSH2 0xEF JUMPI PUSH1 0x0 DUP1 REVERT JUMPDEST POP PUSH2 0x10A PUSH1 0x4 DUP1 CALLDATASIZE SUB DUP2 ADD SWAP1 PUSH2 0x105 SWAP2 SWAP1 PUSH2 0x799 JUMP JUMPDEST PUSH2 0x529 JUMP JUMPDEST PUSH1 0x40 MLOAD PUSH2 0x117 SWAP2 SWAP1 PUSH2 0x946 JUMP JUMPDEST PUSH1 0x40 MLOAD DUP1 SWAP2 SUB SWAP1 RETURN JUMPDEST CALLVALUE DUP1 ISZERO PUSH2 0x12C JUMPI PUSH1 0x0 DUP1 REVERT JUMPDEST POP PUSH2 0x135 PUSH2 0x568 JUMP JUMPDEST PUSH1 0x40 MLOAD PUSH2 0x142 SWAP2 SWAP1 PUSH2 0x9C1 JUMP JUMPDEST PUSH1 0x40 MLOAD DUP1 SWAP2 SUB SWAP1 RETURN JUMPDEST PUSH1 0x3 PUSH1 0x0 SWAP1 SLOAD SWAP1 PUSH2 0x100 EXP SWAP1 DIV PUSH20 0xFFFFFFFFFFFFFFFFFFFFFFFFFFFFFFFFFFFFFFFF AND PUSH20 0xFFFFFFFFFFFFFFFFFFFFFFFFFFFFFFFFFFFFFFFF AND CALLER PUSH20 0xFFFFFFFFFFFFFFFFFFFFFFFFFFFFFFFFFFFFFFFF AND EQ PUSH2 0x1DB JUMPI PUSH1 0x40 MLOAD PUSH32 0x8C379A000000000000000000000000000000000000000000000000000000000 DUP2 MSTORE PUSH1 0x4 ADD PUSH2 0x1D2 SWAP1 PUSH2 0x9A1 JUMP JUMPDEST PUSH1 0x40 MLOAD DUP1 SWAP2 SUB SWAP1 REVERT JUMPDEST PUSH1 0x0 JUMPDEST PUSH1 0x1 DUP1 SLOAD SWAP1 POP DUP2 LT ISZERO PUSH2 0x2AD JUMPI PUSH1 0x0 PUSH1 0x1 DUP3 DUP2 SLOAD DUP2 LT PUSH2 0x227 JUMPI PUSH32 0x4E487B7100000000000000000000000000000000000000000000000000000000 PUSH1 0x0 MSTORE PUSH1 0x32 PUSH1 0x4 MSTORE PUSH1 0x24 PUSH1 0x0 REVERT JUMPDEST SWAP1 PUSH1 0x0 MSTORE PUSH1 0x20 PUSH1 0x0 KECCAK256 ADD PUSH1 0x0 SWAP1 SLOAD SWAP1 PUSH2 0x100 EXP SWAP1 DIV PUSH20 0xFFFFFFFFFFFFFFFFFFFFFFFFFFFFFFFFFFFFFFFF AND SWAP1 POP PUSH1 0x0 PUSH1 0x2 PUSH1 0x0 DUP4 PUSH20 0xFFFFFFFFFFFFFFFFFFFFFFFFFFFFFFFFFFFFFFFF AND PUSH20 0xFFFFFFFFFFFFFFFFFFFFFFFFFFFFFFFFFFFFFFFF AND DUP2 MSTORE PUSH1 0x20 ADD SWAP1 DUP2 MSTORE PUSH1 0x20 ADD PUSH1 0x0 KECCAK256 DUP2 SWAP1 SSTORE POP POP DUP1 DUP1 PUSH2 0x2A5 SWAP1 PUSH2 0xC4C JUMP JUMPDEST SWAP2 POP POP PUSH2 0x1DE JUMP JUMPDEST POP PUSH1 0x0 PUSH8 0xFFFFFFFFFFFFFFFF DUP2 GT ISZERO PUSH2 0x2EF JUMPI PUSH32 0x4E487B7100000000000000000000000000000000000000000000000000000000 PUSH1 0x0 MSTORE PUSH1 0x41 PUSH1 0x4 MSTORE PUSH1 0x24 PUSH1 0x0 REVERT JUMPDEST PUSH1 0x40 MLOAD SWAP1 DUP1 DUP3 MSTORE DUP1 PUSH1 0x20 MUL PUSH1 0x20 ADD DUP3 ADD PUSH1 0x40 MSTORE DUP1 ISZERO PUSH2 0x31D JUMPI DUP2 PUSH1 0x20 ADD PUSH1 0x20 DUP3 MUL DUP1 CALLDATASIZE DUP4 CALLDATACOPY DUP1 DUP3 ADD SWAP2 POP POP SWAP1 POP JUMPDEST POP PUSH1 0x1 SWAP1 DUP1 MLOAD SWAP1 PUSH1 0x20 ADD SWAP1 PUSH2 0x333 SWAP3 SWAP2 SWAP1 PUSH2 0x660 JUMP JUMPDEST POP PUSH1 0x0 CALLER PUSH20 0xFFFFFFFFFFFFFFFFFFFFFFFFFFFFFFFFFFFFFFFF AND SELFBALANCE PUSH1 0x40 MLOAD PUSH2 0x35A SWAP1 PUSH2 0x931 JUMP JUMPDEST PUSH1 0x0 PUSH1 0x40 MLOAD DUP1 DUP4 SUB DUP2 DUP6 DUP8 GAS CALL SWAP3 POP POP POP RETURNDATASIZE DUP1 PUSH1 0x0 DUP2 EQ PUSH2 0x397 JUMPI PUSH1 0x40 MLOAD SWAP2 POP PUSH1 0x1F NOT PUSH1 0x3F RETURNDATASIZE ADD AND DUP3 ADD PUSH1 0x40 MSTORE RETURNDATASIZE DUP3 MSTORE RETURNDATASIZE PUSH1 0x0 PUSH1 0x20 DUP5 ADD RETURNDATACOPY PUSH2 0x39C JUMP JUMPDEST PUSH1 0x60 SWAP2 POP JUMPDEST POP POP SWAP1 POP DUP1 PUSH2 0x3E0 JUMPI PUSH1 0x40 MLOAD PUSH32 0x8C379A000000000000000000000000000000000000000000000000000000000 DUP2 MSTORE PUSH1 0x4 ADD PUSH2 0x3D7 SWAP1 PUSH2 0x961 JUMP JUMPDEST PUSH1 0x40 MLOAD DUP1 SWAP2 SUB SWAP1 REVERT JUMPDEST POP JUMP JUMPDEST PUSH1 0x2 PUSH1 0x20 MSTORE DUP1 PUSH1 0x0 MSTORE PUSH1 0x40 PUSH1 0x0 KECCAK256 PUSH1 0x0 SWAP2 POP SWAP1 POP SLOAD DUP2 JUMP JUMPDEST PUSH1 0x3 PUSH1 0x0 SWAP1 SLOAD SWAP1 PUSH2 0x100 EXP SWAP1 DIV PUSH20 0xFFFFFFFFFFFFFFFFFFFFFFFFFFFFFFFFFFFFFFFF AND DUP2 JUMP JUMPDEST PUSH1 0x0 SLOAD PUSH2 0x42D CALLVALUE PUSH2 0x56E JUMP JUMPDEST LT ISZERO PUSH2 0x46E JUMPI PUSH1 0x40 MLOAD PUSH32 0x8C379A000000000000000000000000000000000000000000000000000000000 DUP2 MSTORE PUSH1 0x4 ADD PUSH2 0x465 SWAP1 PUSH2 0x981 JUMP JUMPDEST PUSH1 0x40 MLOAD DUP1 SWAP2 SUB SWAP1 REVERT JUMPDEST PUSH1 0x1 CALLER SWAP1 DUP1 PUSH1 0x1 DUP2 SLOAD ADD DUP1 DUP3 SSTORE DUP1 SWAP2 POP POP PUSH1 0x1 SWAP1 SUB SWAP1 PUSH1 0x0 MSTORE PUSH1 0x20 PUSH1 0x0 KECCAK256 ADD PUSH1 0x0 SWAP1 SWAP2 SWAP1 SWAP2 SWAP1 SWAP2 PUSH2 0x100 EXP DUP2 SLOAD DUP2 PUSH20 0xFFFFFFFFFFFFFFFFFFFFFFFFFFFFFFFFFFFFFFFF MUL NOT AND SWAP1 DUP4 PUSH20 0xFFFFFFFFFFFFFFFFFFFFFFFFFFFFFFFFFFFFFFFF AND MUL OR SWAP1 SSTORE POP CALLVALUE PUSH1 0x2 PUSH1 0x0 CALLER PUSH20 0xFFFFFFFFFFFFFFFFFFFFFFFFFFFFFFFFFFFFFFFF AND PUSH20 0xFFFFFFFFFFFFFFFFFFFFFFFFFFFFFFFFFFFFFFFF AND DUP2 MSTORE PUSH1 0x20 ADD SWAP1 DUP2 MSTORE PUSH1 0x20 ADD PUSH1 0x0 KECCAK256 PUSH1 0x0 DUP3 DUP3 SLOAD PUSH2 0x520 SWAP2 SWAP1 PUSH2 0x9F8 JUMP JUMPDEST SWAP3 POP POP DUP2 SWAP1 SSTORE POP JUMP JUMPDEST PUSH1 0x1 DUP2 DUP2 SLOAD DUP2 LT PUSH2 0x539 JUMPI PUSH1 0x0 DUP1 REVERT JUMPDEST SWAP1 PUSH1 0x0 MSTORE PUSH1 0x20 PUSH1 0x0 KECCAK256 ADD PUSH1 0x0 SWAP2 POP SLOAD SWAP1 PUSH2 0x100 EXP SWAP1 DIV PUSH20 0xFFFFFFFFFFFFFFFFFFFFFFFFFFFFFFFFFFFFFFFF AND DUP2 JUMP JUMPDEST PUSH1 0x0 SLOAD DUP2 JUMP JUMPDEST PUSH1 0x0 DUP1 PUSH2 0x579 PUSH2 0x5A8 JUMP JUMPDEST SWAP1 POP PUSH1 0x0 PUSH8 0xDE0B6B3A7640000 DUP5 DUP4 PUSH2 0x592 SWAP2 SWAP1 PUSH2 0xB96 JUMP JUMPDEST PUSH2 0x59C SWAP2 SWAP1 PUSH2 0xA4E JUMP JUMPDEST SWAP1 POP DUP1 SWAP3 POP POP POP SWAP2 SWAP1 POP JUMP JUMPDEST PUSH1 0x0 DUP1 PUSH20 0x694AA1769357215DE4FAC081BF1F309ADC325306 SWAP1 POP PUSH1 0x0 DUP2 PUSH20 0xFFFFFFFFFFFFFFFFFFFFFFFFFFFFFFFFFFFFFFFF AND PUSH4 0xFEAF968C PUSH1 0x40 MLOAD DUP2 PUSH4 0xFFFFFFFF AND PUSH1 0xE0 SHL DUP2 MSTORE PUSH1 0x4 ADD PUSH1 0xA0 PUSH1 0x40 MLOAD DUP1 DUP4 SUB DUP2 DUP7 DUP1 EXTCODESIZE ISZERO DUP1 ISZERO PUSH2 0x60A JUMPI PUSH1 0x0 DUP1 REVERT JUMPDEST POP GAS STATICCALL ISZERO DUP1 ISZERO PUSH2 0x61E JUMPI RETURNDATASIZE PUSH1 0x0 DUP1 RETURNDATACOPY RETURNDATASIZE PUSH1 0x0 REVERT JUMPDEST POP POP POP POP PUSH1 0x40 MLOAD RETURNDATASIZE PUSH1 0x1F NOT PUSH1 0x1F DUP3 ADD AND DUP3 ADD DUP1 PUSH1 0x40 MSTORE POP DUP2 ADD SWAP1 PUSH2 0x642 SWAP2 SWAP1 PUSH2 0x7C2 JUMP JUMPDEST POP POP POP SWAP2 POP POP PUSH5 0x2540BE400 DUP2 PUSH2 0x659 SWAP2 SWAP1 PUSH2 0xA7F JUMP JUMPDEST SWAP3 POP POP POP SWAP1 JUMP JUMPDEST DUP3 DUP1 SLOAD DUP3 DUP3 SSTORE SWAP1 PUSH1 0x0 MSTORE PUSH1 0x20 PUSH1 0x0 KECCAK256 SWAP1 DUP2 ADD SWAP3 DUP3 ISZERO PUSH2 0x6D9 JUMPI SWAP2 PUSH1 0x20 MUL DUP3 ADD JUMPDEST DUP3 DUP2 GT ISZERO PUSH2 0x6D8 JUMPI DUP3 MLOAD DUP3 PUSH1 0x0 PUSH2 0x100 EXP DUP2 SLOAD DUP2 PUSH20 0xFFFFFFFFFFFFFFFFFFFFFFFFFFFFFFFFFFFFFFFF MUL NOT AND SWAP1 DUP4 PUSH20 0xFFFFFFFFFFFFFFFFFFFFFFFFFFFFFFFFFFFFFFFF AND MUL OR SWAP1 SSTORE POP SWAP2 PUSH1 0x20 ADD SWAP2 SWAP1 PUSH1 0x1 ADD SWAP1 PUSH2 0x680 JUMP JUMPDEST JUMPDEST POP SWAP1 POP PUSH2 0x6E6 SWAP2 SWAP1 PUSH2 0x6EA JUMP JUMPDEST POP SWAP1 JUMP JUMPDEST JUMPDEST DUP1 DUP3 GT ISZERO PUSH2 0x703 JUMPI PUSH1 0x0 DUP2 PUSH1 0x0 SWAP1 SSTORE POP PUSH1 0x1 ADD PUSH2 0x6EB JUMP JUMPDEST POP SWAP1 JUMP JUMPDEST PUSH1 0x0 DUP2 CALLDATALOAD SWAP1 POP PUSH2 0x716 DUP2 PUSH2 0xCF3 JUMP JUMPDEST SWAP3 SWAP2 POP POP JUMP JUMPDEST PUSH1 0x0 DUP2 MLOAD SWAP1 POP PUSH2 0x72B DUP2 PUSH2 0xD0A JUMP JUMPDEST SWAP3 SWAP2 POP POP JUMP JUMPDEST PUSH1 0x0 DUP2 CALLDATALOAD SWAP1 POP PUSH2 0x740 DUP2 PUSH2 0xD21 JUMP JUMPDEST SWAP3 SWAP2 POP POP JUMP JUMPDEST PUSH1 0x0 DUP2 MLOAD SWAP1 POP PUSH2 0x755 DUP2 PUSH2 0xD21 JUMP JUMPDEST SWAP3 SWAP2 POP POP JUMP JUMPDEST PUSH1 0x0 DUP2 MLOAD SWAP1 POP PUSH2 0x76A DUP2 PUSH2 0xD38 JUMP JUMPDEST SWAP3 SWAP2 POP POP JUMP JUMPDEST PUSH1 0x0 PUSH1 0x20 DUP3 DUP5 SUB SLT ISZERO PUSH2 0x782 JUMPI PUSH1 0x0 DUP1 REVERT JUMPDEST PUSH1 0x0 PUSH2 0x790 DUP5 DUP3 DUP6 ADD PUSH2 0x707 JUMP JUMPDEST SWAP2 POP POP SWAP3 SWAP2 POP POP JUMP JUMPDEST PUSH1 0x0 PUSH1 0x20 DUP3 DUP5 SUB SLT ISZERO PUSH2 0x7AB JUMPI PUSH1 0x0 DUP1 REVERT JUMPDEST PUSH1 0x0 PUSH2 0x7B9 DUP5 DUP3 DUP6 ADD PUSH2 0x731 JUMP JUMPDEST SWAP2 POP POP SWAP3 SWAP2 POP POP JUMP JUMPDEST PUSH1 0x0 DUP1 PUSH1 0x0 DUP1 PUSH1 0x0 PUSH1 0xA0 DUP7 DUP9 SUB SLT ISZERO PUSH2 0x7DA JUMPI PUSH1 0x0 DUP1 REVERT JUMPDEST PUSH1 0x0 PUSH2 0x7E8 DUP9 DUP3 DUP10 ADD PUSH2 0x75B JUMP JUMPDEST SWAP6 POP POP PUSH1 0x20 PUSH2 0x7F9 DUP9 DUP3 DUP10 ADD PUSH2 0x71C JUMP JUMPDEST SWAP5 POP POP PUSH1 0x40 PUSH2 0x80A DUP9 DUP3 DUP10 ADD PUSH2 0x746 JUMP JUMPDEST SWAP4 POP POP PUSH1 0x60 PUSH2 0x81B DUP9 DUP3 DUP10 ADD PUSH2 0x746 JUMP JUMPDEST SWAP3 POP POP PUSH1 0x80 PUSH2 0x82C DUP9 DUP3 DUP10 ADD PUSH2 0x75B JUMP JUMPDEST SWAP2 POP POP SWAP3 SWAP6 POP SWAP3 SWAP6 SWAP1 SWAP4 POP JUMP JUMPDEST PUSH2 0x842 DUP2 PUSH2 0xBF0 JUMP JUMPDEST DUP3 MSTORE POP POP JUMP JUMPDEST PUSH1 0x0 PUSH2 0x855 PUSH1 0xB DUP4 PUSH2 0x9E7 JUMP JUMPDEST SWAP2 POP PUSH32 0x43616C6C206661696C6564000000000000000000000000000000000000000000 PUSH1 0x0 DUP4 ADD MSTORE PUSH1 0x20 DUP3 ADD SWAP1 POP SWAP2 SWAP1 POP JUMP JUMPDEST PUSH1 0x0 PUSH2 0x895 PUSH1 0x12 DUP4 PUSH2 0x9E7 JUMP JUMPDEST SWAP2 POP PUSH32 0x4469646E27742073656E6420656E6F7567680000000000000000000000000000 PUSH1 0x0 DUP4 ADD MSTORE PUSH1 0x20 DUP3 ADD SWAP1 POP SWAP2 SWAP1 POP JUMP JUMPDEST PUSH1 0x0 PUSH2 0x8D5 PUSH1 0x18 DUP4 PUSH2 0x9E7 JUMP JUMPDEST SWAP2 POP PUSH32 0x73656E646572206973206E6F7420746865206F776E6572210000000000000000 PUSH1 0x0 DUP4 ADD MSTORE PUSH1 0x20 DUP3 ADD SWAP1 POP SWAP2 SWAP1 POP JUMP JUMPDEST PUSH1 0x0 PUSH2 0x915 PUSH1 0x0 DUP4 PUSH2 0x9DC JUMP JUMPDEST SWAP2 POP PUSH1 0x0 DUP3 ADD SWAP1 POP SWAP2 SWAP1 POP JUMP JUMPDEST PUSH2 0x92B DUP2 PUSH2 0xC2C JUMP JUMPDEST DUP3 MSTORE POP POP JUMP JUMPDEST PUSH1 0x0 PUSH2 0x93C DUP3 PUSH2 0x908 JUMP JUMPDEST SWAP2 POP DUP2 SWAP1 POP SWAP2 SWAP1 POP JUMP JUMPDEST PUSH1 0x0 PUSH1 0x20 DUP3 ADD SWAP1 POP PUSH2 0x95B PUSH1 0x0 DUP4 ADD DUP5 PUSH2 0x839 JUMP JUMPDEST SWAP3 SWAP2 POP POP JUMP JUMPDEST PUSH1 0x0 PUSH1 0x20 DUP3 ADD SWAP1 POP DUP2 DUP2 SUB PUSH1 0x0 DUP4 ADD MSTORE PUSH2 0x97A DUP2 PUSH2 0x848 JUMP JUMPDEST SWAP1 POP SWAP2 SWAP1 POP JUMP JUMPDEST PUSH1 0x0 PUSH1 0x20 DUP3 ADD SWAP1 POP DUP2 DUP2 SUB PUSH1 0x0 DUP4 ADD MSTORE PUSH2 0x99A DUP2 PUSH2 0x888 JUMP JUMPDEST SWAP1 POP SWAP2 SWAP1 POP JUMP JUMPDEST PUSH1 0x0 PUSH1 0x20 DUP3 ADD SWAP1 POP DUP2 DUP2 SUB PUSH1 0x0 DUP4 ADD MSTORE PUSH2 0x9BA DUP2 PUSH2 0x8C8 JUMP JUMPDEST SWAP1 POP SWAP2 SWAP1 POP JUMP JUMPDEST PUSH1 0x0 PUSH1 0x20 DUP3 ADD SWAP1 POP PUSH2 0x9D6 PUSH1 0x0 DUP4 ADD DUP5 PUSH2 0x922 JUMP JUMPDEST SWAP3 SWAP2 POP POP JUMP JUMPDEST PUSH1 0x0 DUP2 SWAP1 POP SWAP3 SWAP2 POP POP JUMP JUMPDEST PUSH1 0x0 DUP3 DUP3 MSTORE PUSH1 0x20 DUP3 ADD SWAP1 POP SWAP3 SWAP2 POP POP JUMP JUMPDEST PUSH1 0x0 PUSH2 0xA03 DUP3 PUSH2 0xC2C JUMP JUMPDEST SWAP2 POP PUSH2 0xA0E DUP4 PUSH2 0xC2C JUMP JUMPDEST SWAP3 POP DUP3 PUSH32 0xFFFFFFFFFFFFFFFFFFFFFFFFFFFFFFFFFFFFFFFFFFFFFFFFFFFFFFFFFFFFFFFF SUB DUP3 GT ISZERO PUSH2 0xA43 JUMPI PUSH2 0xA42 PUSH2 0xC95 JUMP JUMPDEST JUMPDEST DUP3 DUP3 ADD SWAP1 POP SWAP3 SWAP2 POP POP JUMP JUMPDEST PUSH1 0x0 PUSH2 0xA59 DUP3 PUSH2 0xC2C JUMP JUMPDEST SWAP2 POP PUSH2 0xA64 DUP4 PUSH2 0xC2C JUMP JUMPDEST SWAP3 POP DUP3 PUSH2 0xA74 JUMPI PUSH2 0xA73 PUSH2 0xCC4 JUMP JUMPDEST JUMPDEST DUP3 DUP3 DIV SWAP1 POP SWAP3 SWAP2 POP POP JUMP JUMPDEST PUSH1 0x0 PUSH2 0xA8A DUP3 PUSH2 0xC02 JUMP JUMPDEST SWAP2 POP PUSH2 0xA95 DUP4 PUSH2 0xC02 JUMP JUMPDEST SWAP3 POP DUP3 PUSH32 0x7FFFFFFFFFFFFFFFFFFFFFFFFFFFFFFFFFFFFFFFFFFFFFFFFFFFFFFFFFFFFFFF DIV DUP3 GT PUSH1 0x0 DUP5 SGT PUSH1 0x0 DUP5 SGT AND AND ISZERO PUSH2 0xAD4 JUMPI PUSH2 0xAD3 PUSH2 0xC95 JUMP JUMPDEST JUMPDEST DUP2 PUSH32 0x8000000000000000000000000000000000000000000000000000000000000000 SDIV DUP4 SLT PUSH1 0x0 DUP5 SLT PUSH1 0x0 DUP5 SGT AND AND ISZERO PUSH2 0xB11 JUMPI PUSH2 0xB10 PUSH2 0xC95 JUMP JUMPDEST JUMPDEST DUP3 PUSH32 0x8000000000000000000000000000000000000000000000000000000000000000 SDIV DUP3 SLT PUSH1 0x0 DUP5 SGT PUSH1 0x0 DUP5 SLT AND AND ISZERO PUSH2 0xB4E JUMPI PUSH2 0xB4D PUSH2 0xC95 JUMP JUMPDEST JUMPDEST DUP3 PUSH32 0x7FFFFFFFFFFFFFFFFFFFFFFFFFFFFFFFFFFFFFFFFFFFFFFFFFFFFFFFFFFFFFFF SDIV DUP3 SLT PUSH1 0x0 DUP5 SLT PUSH1 0x0 DUP5 SLT AND AND ISZERO PUSH2 0xB8B JUMPI PUSH2 0xB8A PUSH2 0xC95 JUMP JUMPDEST JUMPDEST DUP3 DUP3 MUL SWAP1 POP SWAP3 SWAP2 POP POP JUMP JUMPDEST PUSH1 0x0 PUSH2 0xBA1 DUP3 PUSH2 0xC2C JUMP JUMPDEST SWAP2 POP PUSH2 0xBAC DUP4 PUSH2 0xC2C JUMP JUMPDEST SWAP3 POP DUP2 PUSH32 0xFFFFFFFFFFFFFFFFFFFFFFFFFFFFFFFFFFFFFFFFFFFFFFFFFFFFFFFFFFFFFFFF DIV DUP4 GT DUP3 ISZERO ISZERO AND ISZERO PUSH2 0xBE5 JUMPI PUSH2 0xBE4 PUSH2 0xC95 JUMP JUMPDEST JUMPDEST DUP3 DUP3 MUL SWAP1 POP SWAP3 SWAP2 POP POP JUMP JUMPDEST PUSH1 0x0 PUSH2 0xBFB DUP3 PUSH2 0xC0C JUMP JUMPDEST SWAP1 POP SWAP2 SWAP1 POP JUMP JUMPDEST PUSH1 0x0 DUP2 SWAP1 POP SWAP2 SWAP1 POP JUMP JUMPDEST PUSH1 0x0 PUSH20 0xFFFFFFFFFFFFFFFFFFFFFFFFFFFFFFFFFFFFFFFF DUP3 AND SWAP1 POP SWAP2 SWAP1 POP JUMP JUMPDEST PUSH1 0x0 DUP2 SWAP1 POP SWAP2 SWAP1 POP JUMP JUMPDEST PUSH1 0x0 PUSH10 0xFFFFFFFFFFFFFFFFFFFF DUP3 AND SWAP1 POP SWAP2 SWAP1 POP JUMP JUMPDEST PUSH1 0x0 PUSH2 0xC57 DUP3 PUSH2 0xC2C JUMP JUMPDEST SWAP2 POP PUSH32 0xFFFFFFFFFFFFFFFFFFFFFFFFFFFFFFFFFFFFFFFFFFFFFFFFFFFFFFFFFFFFFFFF DUP3 EQ ISZERO PUSH2 0xC8A JUMPI PUSH2 0xC89 PUSH2 0xC95 JUMP JUMPDEST JUMPDEST PUSH1 0x1 DUP3 ADD SWAP1 POP SWAP2 SWAP1 POP JUMP JUMPDEST PUSH32 0x4E487B7100000000000000000000000000000000000000000000000000000000 PUSH1 0x0 MSTORE PUSH1 0x11 PUSH1 0x4 MSTORE PUSH1 0x24 PUSH1 0x0 REVERT JUMPDEST PUSH32 0x4E487B7100000000000000000000000000000000000000000000000000000000 PUSH1 0x0 MSTORE PUSH1 0x12 PUSH1 0x4 MSTORE PUSH1 0x24 PUSH1 0x0 REVERT JUMPDEST PUSH2 0xCFC DUP2 PUSH2 0xBF0 JUMP JUMPDEST DUP2 EQ PUSH2 0xD07 JUMPI PUSH1 0x0 DUP1 REVERT JUMPDEST POP JUMP JUMPDEST PUSH2 0xD13 DUP2 PUSH2 0xC02 JUMP JUMPDEST DUP2 EQ PUSH2 0xD1E JUMPI PUSH1 0x0 DUP1 REVERT JUMPDEST POP JUMP JUMPDEST PUSH2 0xD2A DUP2 PUSH2 0xC2C JUMP JUMPDEST DUP2 EQ PUSH2 0xD35 JUMPI PUSH1 0x0 DUP1 REVERT JUMPDEST POP JUMP JUMPDEST PUSH2 0xD41 DUP2 PUSH2 0xC36 JUMP JUMPDEST DUP2 EQ PUSH2 0xD4C JUMPI PUSH1 0x0 DUP1 REVERT JUMPDEST POP JUMP INVALID LOG2 PUSH5 0x6970667358 0x22 SLT KECCAK256 DUP15 0x2D DUP2 MUL PUSH6 0x4022609F1693 0xCC SWAP5 0x2C 0xC7 0x2B 0xC2 SMOD PUSH16 0x60ADB34A61644791ED250507DB64736F PUSH13 0x63430008000033000000000000 "
				},
				"gasEstimates": {
					"creation": {
						"codeDepositCost": "692200",
						"executionCost": "41600",
						"totalCost": "733800"
					},
					"external": {
						"addressToAmountFunded(address)": "1514",
						"fund()": "infinite",
						"funders(uint256)": "2422",
						"minUSD()": "1217",
						"owner()": "1236",
						"withdraw()": "infinite"
					}
				},
				"methodIdentifiers": {
					"addressToAmountFunded(address)": "3e47d6f3",
					"fund()": "b60d4288",
					"funders(uint256)": "dc0d3dff",
					"minUSD()": "dc992aa0",
					"owner()": "8da5cb5b",
					"withdraw()": "3ccfd60b"
				}
			},
			"storageLayout": {
				"storage": [
					{
						"astId": 56,
						"contract": "contracts/FundMe.sol:FundMe",
						"label": "minUSD",
						"offset": 0,
						"slot": "0",
						"type": "t_uint256"
					},
					{
						"astId": 59,
						"contract": "contracts/FundMe.sol:FundMe",
						"label": "funders",
						"offset": 0,
						"slot": "1",
						"type": "t_array(t_address)dyn_storage"
					},
					{
						"astId": 63,
						"contract": "contracts/FundMe.sol:FundMe",
						"label": "addressToAmountFunded",
						"offset": 0,
						"slot": "2",
						"type": "t_mapping(t_address,t_uint256)"
					},
					{
						"astId": 65,
						"contract": "contracts/FundMe.sol:FundMe",
						"label": "owner",
						"offset": 0,
						"slot": "3",
						"type": "t_address"
					}
				],
				"types": {
					"t_address": {
						"encoding": "inplace",
						"label": "address",
						"numberOfBytes": "20"
					},
					"t_array(t_address)dyn_storage": {
						"base": "t_address",
						"encoding": "dynamic_array",
						"label": "address[]",
						"numberOfBytes": "32"
					},
					"t_mapping(t_address,t_uint256)": {
						"encoding": "mapping",
						"key": "t_address",
						"label": "mapping(address => uint256)",
						"numberOfBytes": "32",
						"value": "t_uint256"
					},
					"t_uint256": {
						"encoding": "inplace",
						"label": "uint256",
						"numberOfBytes": "32"
					}
				}
			},
			"userdoc": {
				"kind": "user",
				"methods": {},
				"version": 1
			}
		}
	}
}